:100000000C944A000C9467000C9467000C94F6035F
:100010000C9467000C9467000C9467000C946700C4
:100020000C9467000C9467000C9467000C946700B4
:100030000C9467000C9467000C9467000C946700A4
:100040000C9467000C9467000C9467000C94670094
:100050000C9467000C9467000C9467000C94670084
:100060000C9467000C9467000C9467000C94670074
:100070000C9467000C9467000C946700D680018292
:10008000F4A402C62D94ABC281CAF7C4709800C80C
:1000900000E0818211241FBECFEFD0E1DEBFCDBFD3
:1000A00012E0A0E0B1E0ECE1F3E102C005900D92B6
:1000B000AE37B107D9F713E0AEE7B2E001C01D9249
:1000C000A437B107E1F70E94D1020C948C090C947B
:1000D0000000FF920F931F93182F092FF62E00D0C8
:1000E00000D0EDB7FEB7319680E091E0ADB7BEB776
:1000F00012969C938E931197428313820E94C3069B
:10010000212F302FC901FC0140E050E060E070E099
:100110000F900F900F900F90AF2DB0E00EC0808128
:1001200060FD05C0382F20E04227532703C090E030
:10013000482759276F5F7F4F31966A177B077CF3FB
:10014000CA011F910F91FF9008952F923F924F92F5
:100150005F926F927F928F929F92AF92BF92DF9247
:10016000EF92FF920F931F93DF93CF9300D0CDB701
:10017000DEB77C018DB79EB79A838983D7018C91B6
:1001800080FF02C080688C9300D000D0EDB7FEB72E
:1001900031968FE091E0ADB7BEB712969C938E93E7
:1001A0001197D70114968C91828313820E94C30603
:1001B000EDB7FEB731968AE191E0ADB7BEB71296C2
:1001C0009C938E931197D70115968C9182831382FD
:1001D0000E94C306F701848190E034E0232E312C85
:1001E000280E391E25E0A22EB12CA80EB91E0F90A4
:1001F0000F900F900F908DB79EB78A199B090FB67D
:10020000F8949EBF0FBE8DBF6DB67EB60894611C7C
:10021000711CDD2499E2892E91E0992E24C0F7010A
:10022000E20FF31F80818301020F131FD8018C930B
:1002300000D000D0EDB7FEB73196ADB7BEB712967D
:100240009C928E921197828313820E94C3060F9014
:100250000F900F900F90F80180810E944B0680E272
:100260000E947305D3942D2D30E02A153B05B8F27A
:1002700089E391E00E947B05D70114968C91A82E0A
:10028000BB24EDB7FEB7EA19FB090FB6F894FEBF21
:100290000FBEEDBF8DB69EB60894811C911CDD2467
:1002A0008CE3482E81E0582E21C0F701E20FF31FA6
:1002B00085818401020F131FD8018C9300D000D0D8
:1002C000EDB7FEB73196ADB7BEB712965C924E92BF
:1002D0001197828313820E94C3060F900F900F9094
:1002E0000F90F80180810E947305D3942D2D30E08A
:1002F0002A153B05D0F289E391E00E947B05622D2F
:100300006F5FD7014C914076C3010E946900F701ED
:100310009683858300D000D029E431E0ADB7BEB725
:1003200012963C932E93119714969C938E93139749
:100330000E94C306F701248180E691E0ADB7BEB705
:1003400012969C938E931197E20FF11D958180E098
:10035000268130E0822B932B14969C938E931397D7
:100360000E94C3060F900F900F900F90E981FA81C1
:100370000FB6F894FEBF0FBEEDBF0F900F90CF9158
:10038000DF911F910F91FF90EF90DF90BF90AF90A2
:100390009F908F907F906F905F904F903F902F90A5
:1003A00008952F923F925F926F927F928F929F92C9
:1003B000AF92BF92CF92DF92EF92FF920F931F9373
:1003C000DF93CF9300D000D0CDB7DEB7A82F792F21
:1003D0001A01522E2DB73EB73C832B83552011F0C6
:1003E00098E001C090E080917E028295807F85290F
:1003F000695F862E9924675034010894610871085A
:10040000EDB7FEB7E819F9090FB6F894FEBF0FBEB5
:10041000EDBFCDB6DEB60894C11CD11C9183F601A8
:10042000818385E1828383836483E62EFF24EE0D3E
:10043000FF1D158216822DB73EB72A5F3F4FC901B7
:100440006A2F4E2D50E00E94BA0610E055E7A52E07
:1004500051E0B52E1AC000D000D02DB73EB72F5FA7
:100460003F4FEDB7FEB7B282A182AC0DBD1D8C919E
:10047000D90112968C93129713961C920E94C30670
:100480001F5F0F900F900F900F90A12FB0E0A81555
:10049000B90508F389E791E00E947B05662D6F5F3F
:1004A000C60140E00E9469008C0100D000D0EDB789
:1004B000FEB731968DE891E0ADB7BEB712969C932A
:1004C0008E931197028313830E94C30619830A83B4
:1004D000EC0CFD1C89819A81F70196838583BB24EE
:1004E0000F900F900F900F9045E7642E41E0742E0F
:1004F00025C000D000D0EDB7FEB73196ADB7BEB77E
:1005000012967C926E92119786010E0D1F1DD801D6
:100510008C91828313820E94C306E20CF31CF801C3
:100520008081D7018C930F900F900F900F90808156
:100530000E944B0680E20E947305B394EB2CFF24CB
:10054000E814F904B0F289E391E00E947B0555209C
:1005500029F480917E028F5F80937E0280917E02DB
:10056000803111F410927E02EB81FC810FB6F89479
:10057000FEBF0FBEEDBF0F900F900F900F90CF9169
:10058000DF911F910F91FF90EF90DF90CF90BF9080
:10059000AF909F908F907F906F905F903F902F9043
:1005A0000895AF92BF92CF92DF92EF92FF921F9386
:1005B000DF93CF93CDB7DEB7C957D0400FB6F894CD
:1005C000DEBF0FBECDBF0E94530588EE93E02CE244
:1005D00031E0F9013197F1F70197D9F70E94000551
:1005E00088EE93E02CE231E0F9013197F1F70197C1
:1005F000D9F778948091630390E0FC0125E0EE0F39
:10060000FF1F2A95E1F7880F991FE80FF91FE65E93
:10061000FC4F8081823081F58BE991E00E947B055F
:100620008091630322E2829FC0011124825E9C4F6D
:100630009093F6028093F50210E00AC0E091F50273
:10064000F091F602E10FF11D80810E9473051F5F9A
:100650008091630390E0FC01B5E0EE0FFF1FBA95B7
:10066000E1F7880F991FE80FF91FE65EFC4F8181C3
:10067000181720F30E94EA0482EC91E00E947B05A7
:100680007E010894E11CF11C7CEDA72E75E0B72ECD
:100690006CE2C62E61E0D62E8FED91E00E947B05C4
:1006A0000E945F058093F2028F3FD1F38093F102A5
:1006B0000E94730589E391E00E947B0587E092E048
:1006C0000E947B050E945F058093F2028F3FD1F369
:1006D000E091F302F0E0E158FD4F80830E94730542
:1006E0008091F3028F5F8093F302813759F58091F7
:1006F000F4028F5F8093F402803111F41092F402BF
:100700008FE792E061E7A7012091F4020E94D101F6
:1007100010927F021092F30282E760E04FE752E00E
:100720000E94640610E00E948805C5010197F1F758
:100730001F5F1436C1F788E893E1F6013197F1F7AE
:100740000197D9F78091F2028A3019F08D3009F0C3
:10075000B9CF89E391E00E947B051092F4028FE704
:1007600092E06091F302A70120E00E94D101109273
:100770007F021092F302C70169E70E94A5008FE192
:1007800092E00E947B050E945F058093F2028F3FFA
:10079000D1F30E9473058091F202893509F48ACF62
:1007A000893709F487CF89E391E00E947B0574CFF4
:1007B0002C989EBD0DB407FEFDCF8EBD0DB407FE77
:1007C000FDCF2C9A08952C989EBD0DB407FEFDCF49
:1007D0003EB58EBD0DB407FEFDCF2EB5932F80E044
:1007E0002C9A30E0282B392BC901089578941F9258
:1007F0000F920FB60F921124CF92DF92EF92FF92D9
:100800000F931F932F933F934F935F936F937F9318
:100810008F939F93AF93BF93EF93FF93EA980091C9
:100820006D0384E0C82E12E0D12EB2E2EB2EFF243D
:10083000F394CCBA2C981EBC0DB407FEFDCF2C9AB5
:100840000EB407FE99C010915E031130B9F111305A
:1008500020F0123009F085C069C0F092610380E099
:1008600090EB0E94E303082F0D5F00936003035099
:1008700020916203822F90E0FC01A5E0EE0FFF1FA4
:10088000AA95E1F7880F991FE80FF91FE65EFC4F64
:100890008081882309F065C0F0925E03822F90E08A
:1008A000FC0165E0EE0FFF1F6A95E1F7880F991FC5
:1008B000E80FF91FE65EFC4F0183BBCF80E090EBB1
:1008C0000E94E303282F90916103809160039817A1
:1008D000C0F40227913258F4E0916203EE9DF001DA
:1008E00011243196E90FF11DE65EFC4F20838091C3
:1008F0006103823011F40F3FA1F58F5F8093610394
:1009000098CF80916203282F30E0F90145E0EE0F87
:10091000FF1F4A95E1F7220F331FE20FF31FE65E38
:10092000FC4FD0828127809362031BC0209161031A
:1009300080916003281758F4E22FF0E0E950FD4F52
:10094000808190E02F5F20936103986B12C010921A
:100950005F0381E892E80E94D8038AEA98EB0E943C
:10096000D80310925E0381E89AEC0E94D80383E8D2
:100970009AEC0E94D8035DCF00936D03EA9AFF9131
:10098000EF91BF91AF919F918F917F916F915F9107
:100990004F913F912F911F910F91FF90EF90DF901A
:1009A000CF900F900FBE0F901F901895982F8091A9
:1009B0005F03882311F083E008956093F902909318
:1009C000FA02692760956093FB0281E080935F03E0
:1009D00080E8089520916303822F90E0FC0145E0B8
:1009E000EE0FFF1F4A95E1F7880F991FE80FF91FD7
:1009F000E65EFC4F108281E0282720936303089570
:100A0000CF93DF932C9A249A259A279A2C9A249A8A
:100A1000269881E58CBD8DE28093F70284ED80936A
:100A2000F80210926203109263038DE294E99093AE
:100A300065038093640387EF94EC9093670380933E
:100A4000660380E798E9909369038093680386EDD5
:100A500090E890936B0380936A03C0E0D0E0FE01BE
:100A6000EE0FFF1FE458FF4F859194910E94D80329
:100A70002196CC30D10599F78091690080628093EE
:100A8000690080E090E00E94E30384E08CBB81E891
:100A90009AEC0E94D80383E89AEC0E94D803EA9A61
:100AA000DF91CF9108951092C5008DE48093C4002A
:100AB00088E18093C10086E08093C2000895809110
:100AC000C00087FD03C02FEF3FEF04C08091C60038
:100AD000282F30E0C90108958091C00087FFFCCF26
:100AE0008091C6000895982F8091C00085FFFCCFAB
:100AF0009093C6000895FC0107C08091C00085FF57
:100B0000FCCF9093C600319690819923B1F7089558
:100B10001F9310915E0380916C03811751F183E55F
:100B200092E00E947B05113059F0113018F012301C
:100B300099F40CC08091C00085FFFCCF89E611C0FC
:100B40008091C00085FFFCCF82E70BC08091C00080
:100B500085FFFCCF84E705C08091C00085FFFCCFF6
:100B60008FE38093C60081E692E00E947B0510939C
:100B70006C0380915E03882391F5EA9880E090E011
:100B80000E94E303EA9A90FF02C088EC05C08091BE
:100B90007D02882321F0815080937D0220C08091C6
:100BA0005F038130E1F4EA9881E092E80E94D80383
:100BB0008091F9028A5F809360031092610382E062
:100BC00080935E038AEA98EB0E94D8038AEA98EB46
:100BD0000E94D80381E292E80E94D803EA9A1F910A
:100BE0000895AC0120E030E070E00CC0FA01E20FA3
:100BF000F31FE0818091C00085FFFCCFE093C60029
:100C00002F5F3F4F261737078CF30895873071F118
:100C1000883070F4833011F1843028F48130D1F0C1
:100C20008230D0F436C08530E9F08630E8F418C060
:100C30008B3021F18C3028F48930E1F08A30E0F4F7
:100C400017C08D30F9F08D30D8F08E30E9F08F304C
:100C5000F9F41CC081E3089582E3089583E30895C5
:100C600084E3089585E3089586E3089587E308956E
:100C700088E3089589E3089581E4089582E408955E
:100C800083E4089584E4089585E4089586E408954E
:100C9000089580E308951F93182F8091C00085FF69
:100CA000FCCF812F82958F700E9406068093C6002C
:100CB0008091C00085FFFCCF812F8F700E940606B7
:100CC0008093C6001F910895CF92DF92EF92FF921A
:100CD0000F931F93F82EC62EE42ED52E84E692E0B5
:100CE0000E947B0500D085E792E0ADB7BEB71296B3
:100CF0009C938E9311970E94C30600D0EDB7FEB768
:100D000031960AE712E0ADB7BEB712961C930E9368
:100D10001197F28213820E94C306EDB7FEB71283C9
:100D200001838EE190E0948383830E94C3060F9039
:100D30000F900F900F90FEE1FF1510F482E013C0AA
:100D400080915F03882311F083E00DC02CEF32E027
:100D5000C9016E2D7D2D4F2D50E00E94BA068C2DBD
:100D60006F2D0E94D6041F910F91FF90EF90DF909E
:100D7000CF900895FB01DC0102C001900D9241501B
:100D80005040D8F70895A0E0B0E0E9ECF6E00C940C
:100D90006509FE0135966191719180917003909182
:100DA0007103AF010E94D8062096E2E00C948109FD
:100DB000ABE0B0E0EEEDF6E00C9455093C012B0100
:100DC0005A01FC0117821682838181FD03C06FEFF7
:100DD0007FEFC6C19AE0892E1E010894211C311CA8
:100DE000F3012381F20123FD859123FF81912F01DE
:100DF000882309F4B2C1853239F423FD859123FF9C
:100E000081912F01853229F490E0B3010E94CB0833
:100E1000E7CF982FFF24EE249924FFE1FF15D0F0AF
:100E20009B3269F09C3228F4903259F0933291F45D
:100E30000EC09D3249F0903369F441E024C052E085
:100E4000F52A84E0F82A28C098E0F92A25C0E0E1D4
:100E5000FE2A22C0F7FC29C0892F80538A3070F403
:100E6000F6FE05C0989C902C1124980E15C0E89CA5
:100E7000E02C1124E80EF0E2FF2A0EC09E3229F485
:100E8000F6FC6BC140E4F42A07C09C3619F450E824
:100E9000F52A02C0983649F4F20123FD959123FF0B
:100EA00091912F01992309F0B8CF892F8554833070
:100EB00018F08052833038F444E050E0A40EB51EA0
:100EC0005FE359830FC0933631F0933779F0933550
:100ED00009F056C020C0F5018081898342E050E0CE
:100EE000A40EB51E610101E010E012C0F501C08042
:100EF000D180F6FC03C06FEF7FEF02C0692D70E078
:100F000042E050E0A40EB51EC6010E94C0088C014C
:100F10005FE7F52214C0F501C080D180F6FC03C064
:100F20006FEF7FEF02C0692D70E042E050E0A40E49
:100F3000B51EC6010E94B5088C0150E8F52AF3FEE3
:100F400007C01AC080E290E0B3010E94CB08EA9487
:100F50008E2D90E008171907A8F30EC0F601F7FCD4
:100F60008591F7FE81916F0190E0B3010E94CB085B
:100F7000E110EA94015010400115110579F7EAC01B
:100F8000943611F0993669F5F7FE08C0F501208115
:100F900031814281538184E090E00AC0F501808173
:100FA00091819C01442737FD4095542F82E090E0C9
:100FB000A80EB91E9FE6F92257FF09C0509540952B
:100FC000309521953F4F4F4F5F4FE0E8FE2ACA0111
:100FD000B901A1012AE030E00E94F708D82ED2180A
:100FE00040C0953729F41F2D1F7E2AE030E01DC038
:100FF0001F2D197F9F3661F0903720F4983509F046
:10100000ACC00FC0903739F0983709F0A6C004C0C3
:1010100028E030E00AC0106114FD146020E130E0E7
:1010200004C014FD166020E132E017FF08C0F5018E
:10103000608171818281938144E050E008C0F501B4
:1010400080819181BC0180E090E042E050E0A40EFC
:10105000B51EA1010E94F708D82ED2188FE7F82EEE
:10106000F122F6FE0BC05EEFF522D91438F4F4FE3F
:1010700007C0F2FC05C08FEEF82202C01D2D01C092
:10108000192DF4FE0DC0FE01ED0DF11D80818033A0
:1010900019F499EEF92208C01F5FF2FE05C003C0E3
:1010A0008F2D867809F01F5F0F2DF3FC14C0F0FE22
:1010B0000FC01E1510F09D2C0BC09D2C9E0C911A7C
:1010C0001E2D06C080E290E0B3010E94CB081F5F96
:1010D0001E15C0F304C01E1510F4E11A01C0EE2461
:1010E00004FF0FC080E390E0B3010E94CB0802FF31
:1010F0001DC001FD03C088E790E00EC088E590E0C8
:101100000BC0802F867891F001FF02C08BE201C0F6
:1011100080E2F7FC8DE290E0B3010E94CB0806C0AC
:1011200080E390E0B3010E94CB089A94D914C0F3F5
:10113000DA94F101ED0DF11D808190E0B3010E9480
:10114000CB08DD20A9F706C080E290E0B3010E9441
:10115000CB08EA94EE20C1F743CEF3016681778194
:10116000CB012B96E2E10C947109FC0105906150D2
:1011700070400110D8F7809590958E0F9F1F0895AD
:10118000FC016150704001900110D8F78095909556
:101190008E0F9F1F08950F931F93CF93DF938C01A2
:1011A000EB018B8181FF1BC082FF0DC02E813F812F
:1011B0008C819D812817390764F4E881F9810193B6
:1011C000F983E88306C0E885F985802F0995892B86
:1011D00031F48E819F8101969F838E8302C00FEF31
:1011E0001FEFC801DF91CF911F910F910895FA0170
:1011F000AA27283051F1203181F1E8946F936E7F56
:101200006E5F7F4F8F4F9F4FAF4FB1E03ED0B4E046
:101210003CD0670F781F891F9A1FA11D680F791F87
:101220008A1F911DA11D6A0F711D811D911DA11D98
:1012300020D009F468943F912AE0269F11243019A8
:10124000305D3193DEF6CF010895462F4770405D43
:101250004193B3E00FD0C9F7F6CF462F4F70405DF2
:101260004A3318F0495D31FD4052419302D0A9F74D
:10127000EACFB4E0A6959795879577956795BA9547
:10128000C9F700976105710508959B01AC010A2E0D
:1012900006945795479537952795BA95C9F7620FE4
:1012A000731F841F951FA01D08952F923F924F9288
:1012B0005F926F927F928F929F92AF92BF92CF92E6
:1012C000DF92EF92FF920F931F93CF93DF93CDB7EF
:1012D000DEB7CA1BDB0B0FB6F894DEBF0FBECDBF67
:1012E00009942A88398848885F846E847D848C8438
:1012F0009B84AA84B984C884DF80EE80FD800C8141
:101300001B81AA81B981CE0FD11D0FB6F894DEBF23
:0C1310000FBECDBFED010895F894FFCF93
:10131C00496E20436865636B73756D202578004CAE
:10132C00656E677468202578200046697273742096
:10133C0044617461202578200048656164657220E1
:10134C004461746120257820000A0D0041707020E2
:10135C0044617461202578200043616C63756C6175
:10136C0074656420436865636B73756D2025780024
:10137C0052656365697665642025782043686563EA
:10138C006B73756D00257820000A0D4166746572CB
:10139C0020436865636B73756D200A0D000A436802
:1013AC0065636B73756D2025780A0072666D31323A
:1013BC005F72785F7374617475732829203D2053B4
:1013CC0054415455535F434F4D504C455445200A9E
:1013DC000D0057656C636F6D6520746F2041322072
:1013EC00496C2D4D657373656E6765720A0D0057F8
:1013FC00686963682044657669636520446F205989
:10140C006F752057616E7420746F2054616C6B2063
:10141C00546F3F200A0D005479706520496E205995
:10142C006F7572204D657373616765200A0D000A34
:10143C000D446F20796F75207374696C6C20776123
:10144C006E7420746F2074616C6B20746F207468E0
:10145C006973206465766963653F205B592C4E5D2A
:10146C000A0D006D6F6465206368616E67653A20D4
:10147C00000D0A0073656E64696E67207061636BA2
:0E148C0065740D0A0073656E6400257500100E
:00000001FF
