:100000000C944A000C9467000C9467000C94500305
:100010000C9467000C9467000C9467000C946700C4
:100020000C9467000C9467000C9467000C946700B4
:100030000C9467000C9467000C9467000C946700A4
:100040000C9467000C9467000C9467000C94670094
:100050000C9467000C9467000C9467000C94670084
:100060000C9467000C9467000C9467000C94670074
:100070000C9467000C9467000C946700D680018292
:10008000F4A402C62D94ABC281CAF7C4709800C80C
:1000900000E0818211241FBECFEFD0E1DEBFCDBFD3
:1000A00012E0A0E0B1E0E0EDF1E102C005900D92B8
:1000B000A430B107D9F712E0A4E0B2E001C01D926C
:1000C000AA3FB107E1F70E9469000C94E6080C947E
:1000D00000000F931F930E94AD0488EE93E02CE282
:1000E00031E0F9013197F1F70197D9F70E945A04ED
:1000F00088EE93E02CE231E0F9013197F1F70197B6
:10010000D9F7789480E091E00E94D50402E2209132
:10011000E902822F90E0FC0155E0EE0FFF1F5A9597
:10012000E1F7880F991FE80FF91FE056FD4F808116
:10013000823079F786E191E00E94D5048091E9024E
:10014000809FC00111248C559D4F90937C02809319
:100150007B0210E00AC0E0917B02F0917C02E10F8B
:10016000F11D80810E94CD041F5F8091E90290E023
:10017000FC0135E0EE0FFF1F3A95E1F7880F991F5C
:10018000E80FF91FE056FD4F8181181720F30E94F8
:100190004404BDCFFF920F931F93182F092FF62E03
:1001A00000D000D0EDB7FEB731968DE391E0ADB74A
:1001B000BEB712969C938E931197428313820E942E
:1001C0001D06212F302FC901FC0140E050E060E006
:1001D00070E00F900F900F900F90AF2DB0E00EC019
:1001E000808160FD05C0382F20E04227532703C0DF
:1001F00090E0482759276F5F7F4F31966A177B073A
:100200007CF3CA011F910F91FF9008952F923F92A6
:100210004F925F926F927F928F929F92AF92BF9216
:10022000DF92EF92FF920F931F93DF93CF9300D053
:10023000CDB7DEB77C018DB79EB79A838983D7018E
:100240008C9180FF02C080688C9300D000D0EDB705
:10025000FEB731968CE491E0ADB7BEB712969C9391
:100260008E931197D70114968C91828313820E94EA
:100270001D06EDB7FEB7319687E591E0ADB7BEB785
:1002800012969C938E931197D70115968C91828329
:1002900013820E941D06F701848190E0F4E02F2E66
:1002A000312C280E391EE5E0AE2EB12CA80EB91E59
:1002B0000F900F900F900F908DB79EB78A199B09E2
:1002C0000FB6F8949EBF0FBE8DBF6DB67EB6089474
:1002D000611C711CDD2476E6872E71E0972E24C008
:1002E000F701E20FF31F80818301020F131FD80172
:1002F0008C9300D000D0EDB7FEB73196ADB7BEB746
:1003000012969C928E921197828313820E941D06F0
:100310000F900F900F900F90F80180810E94A5051B
:1003200080E20E94CD04D3942D2D30E02A153B05A8
:10033000B8F286E791E00E94D504D70114968C911B
:10034000A82EBB24EDB7FEB7EA19FB090FB6F89447
:10035000FEBF0FBEEDBF8DB69EB60894811C911CEA
:10036000DD2469E7462E61E0562E21C0F701E20F39
:10037000F31F85818401020F131FD8018C9300D0D5
:1003800000D0EDB7FEB73196ADB7BEB712965C920E
:100390004E921197828313820E941D060F900F9038
:1003A0000F900F90F80180810E94CD04D3942D2DE1
:1003B00030E02A153B05D0F286E791E00E94D50493
:1003C000622D6F5FD7014C914076C3010E94CA0035
:1003D000F7019683858300D000D026E831E0ADB7E1
:1003E000BEB712963C932E93119714969C938E93BE
:1003F00013970E941D06F70124818DE991E0ADB7A6
:10040000BEB712969C938E931197E20FF11D9581C2
:1004100080E0268130E0822B932B14969C938E9360
:1004200013970E941D060F900F900F900F90E98177
:10043000FA810FB6F894FEBF0FBEEDBF0F900F907C
:10044000CF91DF911F910F91FF90EF90DF90BF90C0
:10045000AF909F908F907F906F905F904F903F9064
:100460002F9008952F923F925F926F927F928F927A
:100470009F92AF92BF92CF92DF92EF92FF920F9333
:100480001F93DF93CF9300D000D0CDB7DEB7A82F56
:10049000792F1A01522E2DB73EB73C832B8355205E
:1004A00011F098E001C090E0809104028295807F75
:1004B0008529695F862E9924675034010894610864
:1004C0007108EDB7FEB7E819F9090FB6F894FEBF49
:1004D0000FBEEDBFCDB6DEB60894C11CD11C918312
:1004E000F601818385E1828383836483E62EFF2482
:1004F000EE0DFF1D158216822DB73EB72A5F3F4FC6
:10050000C9016A2F4E2D50E00E94140610E0B2EB94
:10051000AB2EB1E0BB2E1AC000D000D02DB73EB735
:100520002F5F3F4FEDB7FEB7B282A182AC0DBD1D6C
:100530008C91D90112968C93129713961C920E945B
:100540001D061F5F0F900F900F900F90A12FB0E02E
:10055000A815B90508F386EB91E00E94D504662D35
:100560006F5FC60140E00E94CA008C0100D000D03D
:10057000EDB7FEB731968AEC91E0ADB7BEB71296F3
:100580009C938E931197028313830E941D061983F7
:100590000A83EC0CFD1C89819A81F701968385837F
:1005A000BB240F900F900F900F90A2EB6A2EA1E04A
:1005B0007A2E25C000D000D0EDB7FEB73196ADB78A
:1005C000BEB712967C926E92119786010E0D1F1D7A
:1005D000D8018C91828313820E941D06E20CF31CC9
:1005E000F8018081D7018C930F900F900F900F909E
:1005F00080810E94A50580E20E94CD04B394EB2C7B
:10060000FF24E814F904B0F286E791E00E94D504D3
:10061000552029F4809104028F5F80930402809119
:100620000402803111F410920402EB81FC810FB6B8
:10063000F894FEBF0FBEEDBF0F900F900F900F907C
:10064000CF91DF911F910F91FF90EF90DF90CF90AE
:10065000BF90AF909F908F907F906F905F903F90F2
:100660002F9008952C989EBD0DB407FEFDCF8EBD32
:100670000DB407FEFDCF2C9A08952C989EBD0DB4A5
:1006800007FEFDCF3EB58EBD0DB407FEFDCF2EB5E6
:10069000932F80E02C9A30E0282B392BC901089544
:1006A00078941F920F920FB60F921124CF92DF927F
:1006B000EF92FF920F931F932F933F934F935F936C
:1006C0006F937F938F939F93AF93BF93EF93FF931A
:1006D000EA980091F30284E0C82E12E0D12EB2E233
:1006E000EB2EFF24F394CCBA2C981EBC0DB407FE5D
:1006F000FDCF2C9A0EB407FE99C01091E402113080
:10070000B9F1113020F0123009F085C069C0F092C3
:10071000E70280E090EB0E943D03082F0D5F0093FD
:10072000E60203502091E802822F90E0FC01A5E050
:10073000EE0FFF1FAA95E1F7880F991FE80FF91F29
:10074000E056FD4F8081882309F065C0F092E402F5
:10075000822F90E0FC0165E0EE0FFF1F6A95E1F744
:10076000880F991FE80FF91FE056FD4F0183BBCF9B
:1007700080E090EB0E943D03282F9091E70280914A
:10078000E6029817C0F40227913258F4E091E8028B
:10079000EE9DF00111243196E90FF11DE056FD4F59
:1007A00020838091E702823011F40F3FA1F58F5F23
:1007B0008093E70298CF8091E802282F30E0F9017A
:1007C00045E0EE0FFF1F4A95E1F7220F331FE20FBE
:1007D000F31FE056FD4FD08281278093E8021BC0B3
:1007E0002091E7028091E602281758F4E22FF0E00A
:1007F000E358FD4F808190E02F5F2093E702986BD4
:1008000012C01092E50281E892E80E9432038AEA5F
:1008100098EB0E9432031092E40281E89AEC0E9465
:10082000320383E89AEC0E9432035DCF0093F30217
:10083000EA9AFF91EF91BF91AF919F918F917F9134
:100840006F915F914F913F912F911F910F91FF9069
:10085000EF90DF90CF900F900FBE0F901F901895E4
:10086000982F8091E502882311F083E0089560932A
:100870007F0290938002692760956093810281E0F6
:100880008093E50280E808952091E902822F90E0AC
:10089000FC0145E0EE0FFF1F4A95E1F7880F991F15
:1008A000E80FF91FE056FD4F108281E028272093C2
:1008B000E9020895CF93DF932C9A249A259A279AD8
:1008C0002C9A249A269881E58CBD8DE280937D0236
:1008D00084ED80937E021092E8021092E9028DE28C
:1008E00094E99093EB028093EA0287EF94EC909363
:1008F000ED028093EC0280E798E99093EF028093F9
:10090000EE0286ED90E89093F1028093F002C0E051
:10091000D0E0FE01EE0FFF1FE458FF4F8591949148
:100920000E9432032196CC30D10599F7809169005D
:1009300080628093690080E090E00E943D0384E043
:100940008CBB81E89AEC0E94320383E89AEC0E9407
:100950003203EA9ADF91CF9108951092C5008DE499
:100960008093C40088E18093C10086E08093C20038
:1009700008958091C00087FD03C02FEF3FEF04C0B2
:100980008091C600282F30E0C90108958091C000F1
:1009900087FFFCCF8091C6000895982F8091C000FA
:1009A00085FFFCCF9093C6000895FC0107C080919D
:1009B000C00085FFFCCF9093C600319690819923AB
:1009C000B1F708951F931091E4028091F20281170C
:1009D00051F188ED91E00E94D504113059F01130A9
:1009E00018F0123099F40CC08091C00085FFFCCF44
:1009F00089E611C08091C00085FFFCCF82E70BC063
:100A00008091C00085FFFCCF84E705C08091C000C5
:100A100085FFFCCF8FE38093C60086EE91E00E94B5
:100A2000D5041093F2028091E402882391F5EA98AC
:100A300080E090E00E943D03EA9A90FF02C088ECBB
:100A400005C080910202882321F081508093020228
:100A500020C08091E5028130E1F4EA9881E092E8DB
:100A60000E94320380917F028A5F8093E602109297
:100A7000E70282E08093E4028AEA98EB0E94320364
:100A80008AEA98EB0E94320381E292E80E943203E4
:100A9000EA9A1F910895AC0120E030E070E00CC0AC
:100AA000FA01E20FF31FE0818091C00085FFFCCFC7
:100AB000E093C6002F5F3F4F261737078CF308954A
:100AC000873071F1883070F4833011F1843028F46C
:100AD0008130D1F08230D0F436C08530E9F08630F4
:100AE000E8F418C08B3021F18C3028F48930E1F023
:100AF0008A30E0F417C08D30F9F08D30D8F08E30A8
:100B0000E9F08F30F9F41CC081E3089582E3089581
:100B100083E3089584E3089585E3089586E30895C3
:100B200087E3089588E3089589E3089581E40895AB
:100B300082E4089583E4089584E4089585E40895A3
:100B400086E40895089580E308951F93182F8091F7
:100B5000C00085FFFCCF812F82958F700E946005B9
:100B60008093C6008091C00085FFFCCF812F8F70DD
:100B70000E9460058093C6001F910895CF92DF9276
:100B8000EF92FF920F931F93F82EC62EE42ED52ED0
:100B900089EE91E00E94D50400D08AEF91E0ADB7D4
:100BA000BEB712969C938E9311970E941D0600D09B
:100BB000EDB7FEB731960FEF11E0ADB7BEB71296A5
:100BC0001C930E931197F28213820E941D06EDB7BB
:100BD000FEB7128301838EE190E0948383830E94A9
:100BE0001D060F900F900F900F90FEE1FF1510F46F
:100BF00082E013C08091E502882311F083E00DC0EC
:100C000022E832E0C9016E2D7D2D4F2D50E00E946B
:100C100014068C2D6F2D0E9430041F910F91FF90B0
:100C2000EF90DF90CF900895FB01DC0102C00190AE
:100C30000D9241505040D8F70895A0E0B0E0E3E2B3
:100C4000F6E00C94BF08FE01359661917191809198
:100C5000F6029091F702AF010E9432062096E2E080
:100C60000C94DB08ABE0B0E0E8E3F6E00C94AF08EE
:100C70003C012B015A01FC0117821682838181FD00
:100C800003C06FEF7FEFC6C19AE0892E1E01089462
:100C9000211C311CF3012381F20123FD859123FFE7
:100CA00081912F01882309F4B2C1853239F423FDE3
:100CB000859123FF81912F01853229F490E0B301C2
:100CC0000E942508E7CF982FFF24EE249924FFE106
:100CD000FF15D0F09B3269F09C3228F4903259F025
:100CE000933291F40EC09D3249F0903369F441E0A3
:100CF00024C052E0F52A84E0F82A28C098E0F92AB6
:100D000025C0E0E1FE2A22C0F7FC29C0892F8053CC
:100D10008A3070F4F6FE05C0989C902C1124980E31
:100D200015C0E89CE02C1124E80EF0E2FF2A0EC06A
:100D30009E3229F4F6FC6BC140E4F42A07C09C36CD
:100D400019F450E8F52A02C0983649F4F20123FD5F
:100D5000959123FF91912F01992309F0B8CF892F05
:100D60008554833018F08052833038F444E050E0EA
:100D7000A40EB51E5FE359830FC0933631F093374D
:100D800079F0933509F056C020C0F5018081898340
:100D900042E050E0A40EB51E610101E010E012C077
:100DA000F501C080D180F6FC03C06FEF7FEF02C079
:100DB000692D70E042E050E0A40EB51EC6010E940D
:100DC0001A088C015FE7F52214C0F501C080D180BC
:100DD000F6FC03C06FEF7FEF02C0692D70E042E0C8
:100DE00050E0A40EB51EC6010E940F088C0150E809
:100DF000F52AF3FE07C01AC080E290E0B3010E941A
:100E00002508EA948E2D90E008171907A8F30EC064
:100E1000F601F7FC8591F7FE81916F0190E0B30137
:100E20000E942508E110EA940150104001151105B7
:100E300079F7EAC0943611F0993669F5F7FE08C0E3
:100E4000F501208131814281538184E090E00AC024
:100E5000F501808191819C01442737FD4095542FF5
:100E600082E090E0A80EB91E9FE6F92257FF09C064
:100E700050954095309521953F4F4F4F5F4FE0E89B
:100E8000FE2ACA01B901A1012AE030E00E945108FE
:100E9000D82ED21840C0953729F41F2D1F7E2AE086
:100EA00030E01DC01F2D197F9F3661F0903720F470
:100EB000983509F0ACC00FC0903739F0983709F079
:100EC000A6C004C028E030E00AC0106114FD146020
:100ED00020E130E004C014FD166020E132E017FF8D
:100EE00008C0F501608171818281938144E050E006
:100EF00008C0F50180819181BC0180E090E042E072
:100F000050E0A40EB51EA1010E945108D82ED2189F
:100F10008FE7F82EF122F6FE0BC05EEFF522D91412
:100F200038F4F4FE07C0F2FC05C08FEEF82202C0D0
:100F30001D2D01C0192DF4FE0DC0FE01ED0DF11D9A
:100F40008081803319F499EEF92208C01F5FF2FE08
:100F500005C003C08F2D867809F01F5F0F2DF3FCAD
:100F600014C0F0FE0FC01E1510F09D2C0BC09D2C60
:100F70009E0C911A1E2D06C080E290E0B3010E94E3
:100F800025081F5F1E15C0F304C01E1510F4E11ADA
:100F900001C0EE2404FF0FC080E390E0B3010E9483
:100FA000250802FF1DC001FD03C088E790E00EC0C8
:100FB00088E590E00BC0802F867891F001FF02C099
:100FC0008BE201C080E2F7FC8DE290E0B3010E9469
:100FD000250806C080E390E0B3010E9425089A949A
:100FE000D914C0F3DA94F101ED0DF11D808190E088
:100FF000B3010E942508DD20A9F706C080E290E039
:10100000B3010E942508EA94EE20C1F743CEF30114
:1010100066817781CB012B96E2E10C94CB08FC0131
:101020000590615070400110D8F7809590958E0F13
:101030009F1F0895FC016150704001900110D8F786
:10104000809590958E0F9F1F08950F931F93CF93B8
:10105000DF938C01EB018B8181FF1BC082FF0DC0F0
:101060002E813F818C819D812817390764F4E881A6
:10107000F9810193F983E88306C0E885F985802F1B
:101080000995892B31F48E819F8101969F838E83F0
:1010900002C00FEF1FEFC801DF91CF911F910F9199
:1010A0000895FA01AA27283051F1203181F1E894FE
:1010B0006F936E7F6E5F7F4F8F4F9F4FAF4FB1E04B
:1010C0003ED0B4E03CD0670F781F891F9A1FA11D46
:1010D000680F791F8A1F911DA11D6A0F711D811D47
:1010E000911DA11D20D009F468943F912AE0269F0C
:1010F00011243019305D3193DEF6CF010895462F6B
:101100004770405D4193B3E00FD0C9F7F6CF462F4B
:101110004F70405D4A3318F0495D31FD40524193B4
:1011200002D0A9F7EACFB4E0A69597958795779571
:101130006795BA95C9F700976105710508959B01F8
:10114000AC010A2E06945795479537952795BA9581
:10115000C9F7620F731F841F951FA01D08952F925A
:101160003F924F925F926F927F928F929F92AF9237
:10117000BF92CF92DF92EF92FF920F931F93CF9384
:10118000DF93CDB7DEB7CA1BDB0B0FB6F894DEBF1B
:101190000FBECDBF09942A88398848885F846E8441
:1011A0007D848C849B84AA84B984C884DF80EE808B
:1011B000FD800C811B81AA81B981CE0FD11D0FB694
:1011C000F894DEBF0FBECDBFED010895F894FFCFB8
:1011D00072666D31325F72785F73746174757328F3
:1011E0002920200A0D0072666D31325F72785F73BC
:1011F00074617475732829203D205354415455530C
:101200005F434F4D504C455445200A0D00496E2018
:10121000436865636B73756D202578004C656E6758
:1012200074682025782000466972737420446174C4
:1012300061202578200048656164657220446174EE
:101240006120257820000A0D0041707020446174EF
:1012500061202578200043616C63756C617465645E
:1012600020436865636B73756D2025780052656354
:10127000656976656420257820436865636B7375BE
:101280006D00257820000A0D416674657220436860
:1012900065636B73756D200A0D000A436865636BA7
:1012A00073756D2025780A006D6F64652063686131
:1012B0006E67653A20000D0A0073656E64696E679B
:1012C000207061636B65740D0A0073656E640025A0
:0412D0007500100095
:00000001FF
