:100000000C944A000C9467000C9467000C94CB008D
:100010000C9467000C9467000C9467000C946700C4
:100020000C9467000C9467000C9467000C946700B4
:100030000C9467000C9467000C9467000C946700A4
:100040000C9467000C9467000C9467000C94670094
:100050000C9467000C9467000C9467000C94670084
:100060000C9467000C9467000C9467000C94670074
:100070000C9467000C9467000C946700D680018292
:10008000F4A402C62D94ABC281CAF7C4709800C80C
:1000900000E0818211241FBECFEFD0E1DEBFCDBFD3
:1000A00011E0A0E0B1E0E0EEFBE002C005900D92AF
:1000B000AE32B107D9F712E0AEE2B1E001C01D9255
:1000C000A531B107E1F70E9469000C94EE050C948C
:1000D00000001F930E94280288EE93E02CE231E09A
:1000E000F9013197F1F70197D9F70E94D50188EE10
:1000F00093E02CE231E0F9013197F1F70197D9F75C
:1001000078941AE00E943402809396018F3FD1F3D5
:100110000E9448028091970190919601E82FF0E0AB
:10012000E05DFE4F90838F5F809397019A3011F0CE
:100130009D3041F780E091E00E945002E0919701EC
:10014000F0E0E05DFE4F118380E391E00E945002F9
:100150001092300110929701D5CF2C989EBD0DB40E
:1001600007FEFDCF8EBD0DB407FEFDCF2C9A08957E
:100170002C989EBD0DB407FEFDCF3EB58EBD0DB4CF
:1001800007FEFDCF2EB5932F80E02C9A30E0282B70
:10019000392BC901089578941F920F920FB60F92D0
:1001A0001124CF92DF92EF92FF920F931F932F9320
:1001B0003F934F935F936F937F938F939F93AF93EF
:1001C000BF93EF93FF93EA9800910E0284E0C82E4C
:1001D00012E0D12EB2E2EB2EFF24F394CCBA2C988D
:1001E0001EBC0DB407FEFDCF2C9A0EB407FE99C0BD
:1001F0001091FF011130B9F1113020F0123009F0E7
:1002000085C069C0F092020280E090EB0E94B800C5
:10021000082F0D5F00930102035020910302822FEB
:1002200090E0FC01A5E0EE0FFF1FAA95E1F7880F13
:10023000991FE80FF91FE554FE4F8081882309F0CC
:1002400065C0F092FF01822F90E0FC0165E0EE0FA7
:10025000FF1F6A95E1F7880F991FE80FF91FE55412
:10026000FE4F0183BBCF80E090EB0E94B800282FA7
:1002700090910202809101029817C0F402279132F6
:1002800058F4E0910302EE9DF00111243196E90F3C
:10029000F11DE554FE4F208380910202823011F45B
:1002A0000F3FA1F58F5F8093020298CF80910302E8
:1002B000282F30E0F90145E0EE0FFF1F4A95E1F7E6
:1002C000220F331FE20FF31FE554FE4FD082812728
:1002D000809303021BC02091020280910102281723
:1002E00058F4E22FF0E0E856FE4F808190E02F5F57
:1002F00020930202986B12C01092000281E892E8EB
:100300000E94AD008AEA98EB0E94AD001092FF01B6
:1003100081E89AEC0E94AD0083E89AEC0E94AD005F
:100320005DCF00930E02EA9AFF91EF91BF91AF91DA
:100330009F918F917F916F915F914F913F912F91FD
:100340001F910F91FF90EF90DF90CF900F900FBE15
:100350000F901F901895982F80910002882311F01C
:1003600083E0089560939A0190939B0169276095BB
:1003700060939C0181E08093000280E808952091C1
:100380000402822F90E0FC0145E0EE0FFF1F4A952A
:10039000E1F7880F991FE80FF91FE554FE4F10820F
:1003A00081E02827209304020895CF93DF932C9AAD
:1003B000249A259A279A2C9A249A269881E58CBD0E
:1003C0008DE28093980184ED80939901109203024D
:1003D000109204028DE294E9909306028093050244
:1003E00087EF94EC909308028093070280E798E9E6
:1003F00090930A028093090286ED90E890930C0294
:1004000080930B02C0E0D0E0FE01EE0FFF1FE45826
:10041000FF4F859194910E94AD002196CC30D1057B
:1004200099F78091690080628093690080E090E094
:100430000E94B80084E08CBB81E89AEC0E94AD0079
:1004400083E89AEC0E94AD00EA9ADF91CF9108957B
:100450001092C5008DE48093C40088E18093C100B0
:1004600086E08093C20008958091C00087FD03C09C
:100470002FEF3FEF04C08091C600282F30E0C90164
:1004800008958091C00087FFFCCF8091C600089539
:10049000982F8091C00085FFFCCF9093C6000895EF
:1004A000FC0107C08091C00085FFFCCF9093C6007F
:1004B000319690819923B1F708951F931091FF0110
:1004C00080910D02811751F183E091E00E9450026A
:1004D000113059F0113018F0123099F40CC080919D
:1004E000C00085FFFCCF89E611C08091C00085FF68
:1004F000FCCF82E70BC08091C00085FFFCCF84E772
:1005000005C08091C00085FFFCCF8FE38093C600BB
:1005100081E191E00E94500210930D028091FF0151
:10052000882391F5EA9880E090E00E94B800EA9A6A
:1005300090FF02C088EC05C080912D01882321F036
:10054000815080932D0120C0809100028130E1F420
:10055000EA9881E092E80E94AD0080919A018A5F5A
:10056000809301021092020282E08093FF018AEAE6
:1005700098EB0E94AD008AEA98EB0E94AD0081E200
:1005800092E80E94AD00EA9A1F910895CF92DF92FF
:10059000EF92FF920F931F93F82EC62EE42ED52EC6
:1005A00084E191E00E94500200D085E291E0ADB775
:1005B000BEB712969C938E9311970E94250300D08C
:1005C000EDB7FEB731960AE211E0ADB7BEB71296AD
:1005D0001C930E931197F28213820E942503EDB7AC
:1005E000FEB7128301838EE190E0948383830E949F
:1005F00025030F900F900F900F90FEE1FF1510F460
:1006000082E013C080910002882311F083E00DC0C6
:100610002DE931E0C9016E2D7D2D4F2D50E00E9456
:100620001C038C2D6F2D0E94AB011F910F91FF9029
:10063000EF90DF90CF900895FB01DC0102C00190A4
:100640000D9241505040D8F70895A0E0B0E0EBE2A1
:10065000F3E00C94C705FE0135966191719180918C
:10066000110290911202AF010E943A032096E2E03B
:100670000C94E305ABE0B0E0E0E4F3E00C94B705E4
:100680003C012B015A01FC0117821682838181FDF6
:1006900003C06FEF7FEFC6C19AE0892E1E01089458
:1006A000211C311CF3012381F20123FD859123FFDD
:1006B00081912F01882309F4B2C1853239F423FDD9
:1006C000859123FF81912F01853229F490E0B301B8
:1006D0000E942D05E7CF982FFF24EE249924FFE1F7
:1006E000FF15D0F09B3269F09C3228F4903259F01B
:1006F000933291F40EC09D3249F0903369F441E099
:1007000024C052E0F52A84E0F82A28C098E0F92AAB
:1007100025C0E0E1FE2A22C0F7FC29C0892F8053C2
:100720008A3070F4F6FE05C0989C902C1124980E27
:1007300015C0E89CE02C1124E80EF0E2FF2A0EC060
:100740009E3229F4F6FC6BC140E4F42A07C09C36C3
:1007500019F450E8F52A02C0983649F4F20123FD55
:10076000959123FF91912F01992309F0B8CF892FFB
:100770008554833018F08052833038F444E050E0E0
:10078000A40EB51E5FE359830FC0933631F0933743
:1007900079F0933509F056C020C0F5018081898336
:1007A00042E050E0A40EB51E610101E010E012C06D
:1007B000F501C080D180F6FC03C06FEF7FEF02C06F
:1007C000692D70E042E050E0A40EB51EC6010E9403
:1007D00022058C015FE7F52214C0F501C080D180AD
:1007E000F6FC03C06FEF7FEF02C0692D70E042E0BE
:1007F00050E0A40EB51EC6010E9417058C0150E8FA
:10080000F52AF3FE07C01AC080E290E0B3010E940F
:100810002D05EA948E2D90E008171907A8F30EC055
:10082000F601F7FC8591F7FE81916F0190E0B3012D
:100830000E942D05E110EA940150104001151105A8
:1008400079F7EAC0943611F0993669F5F7FE08C0D9
:10085000F501208131814281538184E090E00AC01A
:10086000F501808191819C01442737FD4095542FEB
:1008700082E090E0A80EB91E9FE6F92257FF09C05A
:1008800050954095309521953F4F4F4F5F4FE0E891
:10089000FE2ACA01B901A1012AE030E00E945905EF
:1008A000D82ED21840C0953729F41F2D1F7E2AE07C
:1008B00030E01DC01F2D197F9F3661F0903720F466
:1008C000983509F0ACC00FC0903739F0983709F06F
:1008D000A6C004C028E030E00AC0106114FD146016
:1008E00020E130E004C014FD166020E132E017FF83
:1008F00008C0F501608171818281938144E050E0FC
:1009000008C0F50180819181BC0180E090E042E067
:1009100050E0A40EB51EA1010E945905D82ED21890
:100920008FE7F82EF122F6FE0BC05EEFF522D91408
:1009300038F4F4FE07C0F2FC05C08FEEF82202C0C6
:100940001D2D01C0192DF4FE0DC0FE01ED0DF11D90
:100950008081803319F499EEF92208C01F5FF2FEFE
:1009600005C003C08F2D867809F01F5F0F2DF3FCA3
:1009700014C0F0FE0FC01E1510F09D2C0BC09D2C56
:100980009E0C911A1E2D06C080E290E0B3010E94D9
:100990002D051F5F1E15C0F304C01E1510F4E11ACB
:1009A00001C0EE2404FF0FC080E390E0B3010E9479
:1009B0002D0502FF1DC001FD03C088E790E00EC0B9
:1009C00088E590E00BC0802F867891F001FF02C08F
:1009D0008BE201C080E2F7FC8DE290E0B3010E945F
:1009E0002D0506C080E390E0B3010E942D059A9486
:1009F000D914C0F3DA94F101ED0DF11D808190E07E
:100A0000B3010E942D05DD20A9F706C080E290E029
:100A1000B3010E942D05EA94EE20C1F743CEF30105
:100A200066817781CB012B96E2E10C94D305FC0122
:100A30000590615070400110D8F7809590958E0F09
:100A40009F1F0895FC016150704001900110D8F77C
:100A5000809590958E0F9F1F08950F931F93CF93AE
:100A6000DF938C01EB018B8181FF1BC082FF0DC0E6
:100A70002E813F818C819D812817390764F4E8819C
:100A8000F9810193F983E88306C0E885F985802F11
:100A90000995892B31F48E819F8101969F838E83E6
:100AA00002C00FEF1FEFC801DF91CF911F910F918F
:100AB0000895FA01AA27283051F1203181F1E894F4
:100AC0006F936E7F6E5F7F4F8F4F9F4FAF4FB1E041
:100AD0003ED0B4E03CD0670F781F891F9A1FA11D3C
:100AE000680F791F8A1F911DA11D6A0F711D811D3D
:100AF000911DA11D20D009F468943F912AE0269F02
:100B000011243019305D3193DEF6CF010895462F60
:100B10004770405D4193B3E00FD0C9F7F6CF462F41
:100B20004F70405D4A3318F0495D31FD40524193AA
:100B300002D0A9F7EACFB4E0A69597958795779567
:100B40006795BA95C9F700976105710508959B01EE
:100B5000AC010A2E06945795479537952795BA9577
:100B6000C9F7620F731F841F951FA01D08952F9250
:100B70003F924F925F926F927F928F929F92AF922D
:100B8000BF92CF92DF92EF92FF920F931F93CF937A
:100B9000DF93CDB7DEB7CA1BDB0B0FB6F894DEBF11
:100BA0000FBECDBF09942A88398848885F846E8437
:100BB0007D848C849B84AA84B984C884DF80EE8081
:100BC000FD800C811B81AA81B981CE0FD11D0FB68A
:100BD000F894DEBF0FBECDBFED010895F894FFCFAE
:100BE0000A0D006D6F6465206368616E67653A2069
:100BF000000D0A0073656E64696E67207061636B37
:0E0C000065740D0A0073656E640025750010A2
:00000001FF
