:100000000C944A000C9467000C9467000C94A604AE
:100010000C9467000C9467000C9467000C946700C4
:100020000C9467000C9467000C9467000C946700B4
:100030000C9467000C9467000C9467000C946700A4
:100040000C9467000C9467000C9467000C94670094
:100050000C9467000C9467000C9467000C94670084
:100060000C9467000C9467000C9467000C94670074
:100070000C9467000C9467000C946700D680018292
:10008000F4A402C62D94ABC281CAF7C4709800C80C
:1000900000E0818211241FBECFEFD0E1DEBFCDBFD3
:1000A00013E0A0E0B1E0ECE7F4E102C005900D92AE
:1000B000A236B107D9F715E0A2E6B3E001C01D9260
:1000C000AC33B107E1F70E9449030C943C0A0C944D
:1000D00000000F931F93CF93DF938C0180E091E09A
:1000E0000E942B06C0E0D0E0F801EC0FFD1F8081DC
:1000F0000E94FB0680E20E942306C63021F0219672
:10010000C730D10589F78AE191E00E942B06DF9183
:10011000CF911F910F910895FF920F931F93182F66
:10012000092FF62E00D000D0EDB7FEB731968DE145
:1001300091E0ADB7BEB712969C938E931197428310
:1001400013820E947307212F302FC901FC0140E068
:1001500050E060E070E00F900F900F900F90AF2D87
:10016000B0E00EC0808160FD05C0382F20E042273E
:10017000532703C090E0482759276F5F7F4F319680
:100180006A177B077CF3CA011F910F91FF900895B6
:10019000AF92BF92CF92DF92EF92FF920F931F9395
:1001A000DF93CF93CDB7DEB727970FB6F894DEBFB6
:1001B0000FBECDBF8C01CDB6DEB6FC018481282FE9
:1001C00030E08DB79EB7821B930B0FB6F8949EBF9D
:1001D0000FBE8DBFEDB6FEB60894E11CF11C90E099
:1001E00009C0F701EA0FFB1FA00FB11F15968C91F4
:1001F00080839F5FA92FB0E0A217B30790F38CE232
:1002000091E00E942B06F80182810E94FB0686E3A2
:1002100091E00E942B06F80183810E94FB0683E493
:1002200091E00E942B06F8018181869586950E94B7
:10023000FB0686E591E00E942B06F8018181837020
:100240000E94FB0689E691E00E942B06F80184815A
:100250000E94FB068FE891E00E942B06C701F8017F
:1002600064810E94A10688E991E00E942B06F801B2
:100270008481E80FF11D85810E94FB0680E20E94C7
:100280002306F8018481E80FF11D86810E94FB0698
:100290008AE191E00E942B06F801808184FF6AC008
:1002A000BDB6AEB6848190E0BC016C5F7F4FAC01FF
:1002B0004B5F5F4F8DB79EB7841B950B0FB6F894BD
:1002C0009EBF0FBE8DBFEDB6FEB60894E11CF11CBB
:1002D00020E008C0F701EA0FFB1FA00FB11F8C91AF
:1002E00080832F5FA22FB0E0A417B50798F36F5F4C
:1002F000F80140814076C7010E948C00F801968386
:1003000085832481E20FF11D358120E0468150E094
:10031000242B352B8217930741F0F80180818160EF
:10032000808385EA91E00E942B06F80140814068B5
:100330004083498381818A8382818B8383818C83FB
:1003400084818D8340768E010F5F1F4FC80165E069
:100350000E948C009E838F83C8010E94690083E6FF
:100360000E9423062B2D3A2DC9010FB6F8949EBF8B
:100370000FBE8DBF0FB6F894DEBE0FBECDBE279662
:100380000FB6F894DEBF0FBECDBFCF91DF911F91A6
:100390000F91FF90EF90DF90CF90BF90AF900895B6
:1003A0002F923F924F925F926F927F928F929F9285
:1003B000AF92BF92CF92DF92EF92FF920F931F9373
:1003C000DF93CF93CDB7DEB72B970FB6F894DEBF90
:1003D0000FBECDBF682E9B87A62E58874F83122F46
:1003E0002DB73EB73A87298786EB91E00E942B060E
:1003F000EA2CFF2423E633E0C901662D7B854A2DD4
:1004000050E00E946A07112311F088E101C080E1E9
:1004100070906203770C770C712A37E0A30E8A2C58
:10042000992499EFA90ED4011197BE83AD83EDB73E
:10043000FEB7E819F9090FB6F894FEBF0FBEEDBF7D
:10044000CDB6DEB60894C11CD11C8183D6011196AD
:100450007C92119785E112968C93129713968C9348
:1004600013971496AC928A2D90E025E0422E512CE1
:10047000480E591EF601E40DF51D1082FC0136965A
:10048000FC83EB83EC0DFD1D10822DB73EB72A5F78
:100490003F4FC901662D7B854E2D50E00E946A07B3
:1004A00010E093EF292E91E0392E1AC000D000D031
:1004B0002DB73EB72F5F3F4FEDB7FEB73282218297
:1004C000AC0DBD1D8C91D90112968C931297139689
:1004D0001C920E9473071F5F0F900F900F900F9058
:1004E000A12FB0E0A815B90508F36D816F5FC601B3
:1004F00040E00E948C008C0100D000D0EDB7FEB728
:10050000319687EF91E0ADB7BEB712969C938E936C
:100510001197028313830E94730719830A83EC0CDB
:10052000FD1C89819A81F701968385830F900F9036
:100530000F900F9085E092E00E942B06BB2483EF82
:10054000282E81E0382E26C000D000D0EDB7FEB7AF
:100550003196ADB7BEB712963C922E921197860196
:100560000E0D1F1DD8018C91828313820E94730788
:10057000F80180812F813885E20EF31ED7018C931C
:100580000F900F900F900F900E94FB0680E20E9448
:100590002306B394EB2CFF24E814F904A8F28AE1B3
:1005A00091E00E942B06B1E7AB1629F0809162031F
:1005B0008F5F8093620380916203803411F4109204
:1005C00062038CE291E00E942B0685E10E94FB060B
:1005D00086E391E00E942B0685E10E94FB0683E4FE
:1005E00091E00E942B06872D869586950E94FB063A
:1005F00086E591E00E942B06872D83700E94FB0602
:1006000089E691E00E942B068A2D0E94FB068FE866
:1006100091E00E942B06862D9B856A2D0E94A106E3
:1006200088E991E00E942B064C0C5D1CF201808150
:100630000E94FB0680E20E9423062B813C81C20EB1
:10064000D31ED6018C910E94FB068AE191E00E94A4
:100650002B06E985FA850FB6F894FEBF0FBEEDBFF5
:100660002B960FB6F894DEBF0FBECDBFCF91DF91B2
:100670001F910F91FF90EF90DF90CF90BF90AF90C0
:100680009F908F907F906F905F904F903F902F90B2
:100690000895AF92BF92CF92DF92EF92FF920F93A5
:1006A0001F93DF93CF93CDB7DEB7C957D0400FB6B6
:1006B000F894DEBF0FBECDBF0E94030688EE93E024
:1006C0002CE231E0F9013197F1F70197D9F70E9457
:1006D000B00588EE93E02CE231E0F9013197F1F7B3
:1006E0000197D9F7789481E292E00E942B06ECE220
:1006F000AE2EE1E0BE2E7E010894E11CF11C7CEDE3
:10070000C72E75E0D72E02E28EE392E00E942B0600
:100710000E940F068093BA048F3FD1F38093B904EF
:100720000E9423068AE191E00E942B0686E692E071
:100730000E942B068AE892E00E942B060E940F0678
:100740008093BA048F3FD1F3E091BB04F0E0EB5209
:10075000FC4F80830E9423068091BB048F5F8093AF
:10076000BB04813709F582EA92E00E942B06809152
:10077000BC048F5F8093BC04803111F41092BC04E0
:10078000A7E4B4E0E5EDF3E082E701900D9281503B
:10079000E1F71092D5031092BB0488E893E1F501CC
:1007A0003197F1F70197D9F78091BA048A3019F09F
:1007B0008D3009F0C3CF8AE191E00E942B06209191
:1007C000BC04222309F1C6010197F1F7215087E407
:1007D00094E061E7A7010E94D00182E760E045ED67
:1007E00053E00E94140710E00E943806C6010197EA
:1007F000F1F71F5F1436C1F785ED93E06091BB04FC
:10080000A7012091BC0406C085ED93E06091BB0474
:10081000A70120E00E94D00182E760E045ED53E0AF
:100820000E94140710E00E943806C6010197F1F7F4
:100830001F5F1436C1F788E893E1F5013197F1F7AE
:100840000197D9F71092D5031092BB041092BC0403
:100850008CEB92E00E942B060E940F068093BA0454
:100860008F3FD1F30E9423068091BA04893511F09D
:10087000893719F48AE191E05BCF8AE191E00E9427
:100880002B06C70169E70E94C80080912B0590E004
:10089000FC0165E0EE0FFF1F6A95E1F7880F991FD5
:1008A000E80FF91FEE51FB4F8081823009F02CCF09
:1008B00080EF92E00E942B0680912B05809FC00163
:1008C00011248A519B4F9093BE048093BD0410E085
:1008D0000AC0E091BD04F091BE04E10FF11D8081DA
:1008E0000E9423061F5F80912B0590E0FC0145E0EC
:1008F000EE0FFF1F4A95E1F7880F991FE80FF91FC8
:10090000EE51FB4F8181181720F30E949A05FCCE0F
:100910002C989EBD0DB407FEFDCF8EBD0DB407FE15
:10092000FDCF2C9A08952C989EBD0DB407FEFDCFE7
:100930003EB58EBD0DB407FEFDCF2EB5932F80E0E2
:100940002C9A30E0282B392BC901089578941F92F6
:100950000F920FB60F921124CF92DF92EF92FF9277
:100960000F931F932F933F934F935F936F937F93B7
:100970008F939F93AF93BF93EF93FF93EA98009168
:10098000350584E0C82E12E0D12EB2E2EB2EFF2412
:10099000F394CCBA2C981EBC0DB407FEFDCF2C9A54
:1009A0000EB407FE99C0109126051130B9F111302F
:1009B00020F0123009F085C069C0F092290580E06E
:1009C00090EB0E949304082F0D5F009328050350BD
:1009D00020912A05822F90E0FC01A5E0EE0FFF1F79
:1009E000AA95E1F7880F991FE80FF91FEE51FB4F09
:1009F0008081882309F065C0F0922605822F90E05F
:100A0000FC0165E0EE0FFF1F6A95E1F7880F991F63
:100A1000E80FF91FEE51FB4F0183BBCF80E090EB55
:100A20000E949304282F90912905809128059817FA
:100A3000C0F40227913258F4E0912A05EE9DF001AE
:100A400011243196E90FF11DEE51FB4F2083809167
:100A50002905823011F40F3FA1F58F5F809329059E
:100A600098CF80912A05282F30E0F90145E0EE0F5C
:100A7000FF1F4A95E1F7220F331FE20FF31FEE51DC
:100A8000FB4FD082812780932A051BC02091290526
:100A900080912805281758F4E22FF0E0E154FB4F2D
:100AA000808190E02F5F20932905986B12C01092EF
:100AB000270581E892E80E9488048AEA98EB0E9460
:100AC00088041092260581E89AEC0E94880483E845
:100AD0009AEC0E9488045DCF00933505EA9AFF9155
:100AE000EF91BF91AF919F918F917F916F915F91A6
:100AF0004F913F912F911F910F91FF90EF90DF90B9
:100B0000CF900F900FBE0F901F901895982F809147
:100B10002705882311F083E008956093C104909322
:100B2000C204692760956093C30481E08093270520
:100B300080E8089520912B05822F90E0FC0145E08C
:100B4000EE0FFF1F4A95E1F7880F991FE80FF91F75
:100B5000EE51FB4F108281E0282720932B0508954A
:100B6000CF93DF932C9A249A259A279A2C9A249A29
:100B7000269881E58CBD8DE28093BF0484ED80933F
:100B8000C00410922A0510922B058DE294E99093EF
:100B90002D0580932C0587EF94EC90932F0580937F
:100BA0002E0580E798E9909331058093300586ED16
:100BB00090E89093330580933205C0E0D0E0FE01C9
:100BC000EE0FFF1FE458FF4F859194910E94880417
:100BD0002196CC30D10599F780916900806280938D
:100BE000690080E090E00E94930484E08CBB81E87F
:100BF0009AEC0E94880483E89AEC0E948804EA9A9E
:100C0000DF91CF9108951092C5008DE48093C400C8
:100C100088E18093C10086E08093C20008958091AE
:100C2000C00087FD03C02FEF3FEF04C08091C600D6
:100C3000282F30E0C90108958091C00087FFFCCFC4
:100C40008091C6000895982F8091C00085FFFCCF49
:100C50009093C6000895FC0107C08091C00085FFF5
:100C6000FCCF9093C600319690819923B1F70895F7
:100C70001F931091260580913405811751F187E16A
:100C800093E00E942B06113059F0113018F0123009
:100C900099F40CC08091C00085FFFCCF89E611C09B
:100CA0008091C00085FFFCCF82E70BC08091C0001F
:100CB00085FFFCCF84E705C08091C00085FFFCCF95
:100CC0008FE38093C60085E293E00E942B06109389
:100CD000340580912605882391F5EA9880E090E01C
:100CE0000E949304EA9A90FF02C088EC05C08091AC
:100CF0006003882321F081508093600320C080919D
:100D000027058130E1F4EA9881E092E80E948804A6
:100D10008091C1048A5F809328051092290582E0A2
:100D2000809326058AEA98EB0E9488048AEA98EB69
:100D30000E94880481E292E80E948804EA9A1F9146
:100D40000895AC0120E030E070E00CC0FA01E20F41
:100D5000F31FE0818091C00085FFFCCFE093C600C7
:100D60002F5F3F4F261737078CF30895873071F1B7
:100D7000883070F4833011F1843028F48130D1F060
:100D80008230D0F436C08530E9F08630E8F418C0FF
:100D90008B3021F18C3028F48930E1F08A30E0F496
:100DA00017C08D30F9F08D30D8F08E30E9F08F30EB
:100DB000F9F41CC081E3089582E3089583E3089564
:100DC00084E3089585E3089586E3089587E308950D
:100DD00088E3089589E3089581E4089582E40895FD
:100DE00083E4089584E4089585E4089586E40895ED
:100DF000089580E308951F93182F8091C00085FF08
:100E0000FCCF812F82958F700E94B6068093C6001A
:100E10008091C00085FFFCCF812F8F700E94B606A5
:100E20008093C6001F910895CF92DF92EF92FF92B8
:100E30000F931F93F82EC62EE42ED52E88E293E052
:100E40000E942B0600D088E593E0ADB7BEB712969E
:100E50009C938E9311970E94730700D0EDB7FEB755
:100E600031960DE513E0ADB7BEB712961C930E9305
:100E70001197F28213820E947307EDB7FEB71283B7
:100E800001838EE190E0948383830E9473070F9027
:100E90000F900F900F90FEE1FF1510F482E013C049
:100EA00080912705882311F083E00DC024EC34E005
:100EB000C9016E2D7D2D4F2D50E00E946A078C2DAB
:100EC0006F2D0E9486051F910F91FF90EF90DF908C
:100ED000CF900895FB01DC0102C001900D924150BA
:100EE0005040D8F70895A0E0B0E0E9E7F7E00C94AF
:100EF000150AFE01359661917191809138059091A6
:100F00003905AF010E9488072096E2E00C94310A6F
:100F1000ABE0B0E0EEE8F7E00C94050A3C012B01F1
:100F20005A01FC0117821682838181FD03C06FEF95
:100F30007FEFC6C19AE0892E1E010894211C311C46
:100F4000F3012381F20123FD859123FF81912F017C
:100F5000882309F4B2C1853239F423FD859123FF3A
:100F600081912F01853229F490E0B3010E947B0921
:100F7000E7CF982FFF24EE249924FFE1FF15D0F04E
:100F80009B3269F09C3228F4903259F0933291F4FC
:100F90000EC09D3249F0903369F441E024C052E024
:100FA000F52A84E0F82A28C098E0F92A25C0E0E173
:100FB000FE2A22C0F7FC29C0892F80538A3070F4A2
:100FC000F6FE05C0989C902C1124980E15C0E89C44
:100FD000E02C1124E80EF0E2FF2A0EC09E3229F424
:100FE000F6FC6BC140E4F42A07C09C3619F450E8C3
:100FF000F52A02C0983649F4F20123FD959123FFAA
:1010000091912F01992309F0B8CF892F855483300E
:1010100018F08052833038F444E050E0A40EB51E3E
:101020005FE359830FC0933631F0933779F09335EE
:1010300009F056C020C0F5018081898342E050E06C
:10104000A40EB51E610101E010E012C0F501C080E0
:10105000D180F6FC03C06FEF7FEF02C0692D70E016
:1010600042E050E0A40EB51EC6010E9470098C013A
:101070005FE7F52214C0F501C080D180F6FC03C003
:101080006FEF7FEF02C0692D70E042E050E0A40EE8
:10109000B51EC6010E9465098C0150E8F52AF3FED1
:1010A00007C01AC080E290E0B3010E947B09EA9475
:1010B0008E2D90E008171907A8F30EC0F601F7FC73
:1010C0008591F7FE81916F0190E0B3010E947B0949
:1010D000E110EA94015010400115110579F7EAC0BA
:1010E000943611F0993669F5F7FE08C0F5012081B4
:1010F00031814281538184E090E00AC0F501808112
:1011000091819C01442737FD4095542F82E090E067
:10111000A80EB91E9FE6F92257FF09C050954095C9
:10112000309521953F4F4F4F5F4FE0E8FE2ACA01AF
:10113000B901A1012AE030E00E94A709D82ED218F7
:1011400040C0953729F41F2D1F7E2AE030E01DC0D6
:101150001F2D197F9F3661F0903720F4983509F0E4
:10116000ACC00FC0903739F0983709F0A6C004C062
:1011700028E030E00AC0106114FD146020E130E086
:1011800004C014FD166020E132E017FF08C0F5012D
:10119000608171818281938144E050E008C0F50153
:1011A00080819181BC0180E090E042E050E0A40E9B
:1011B000B51EA1010E94A709D82ED2188FE7F82EDC
:1011C000F122F6FE0BC05EEFF522D91438F4F4FEDE
:1011D00007C0F2FC05C08FEEF82202C01D2D01C031
:1011E000192DF4FE0DC0FE01ED0DF11D808180333F
:1011F00019F499EEF92208C01F5FF2FE05C003C082
:101200008F2D867809F01F5F0F2DF3FC14C0F0FEC0
:101210000FC01E1510F09D2C0BC09D2C9E0C911A1A
:101220001E2D06C080E290E0B3010E947B091F5F83
:101230001E15C0F304C01E1510F4E11A01C0EE24FF
:1012400004FF0FC080E390E0B3010E947B0902FF1E
:101250001DC001FD03C088E790E00EC088E590E066
:101260000BC0802F867891F001FF02C08BE201C095
:1012700080E2F7FC8DE290E0B3010E947B0906C09A
:1012800080E390E0B3010E947B099A94D914C0F3E3
:10129000DA94F101ED0DF11D808190E0B3010E941F
:1012A0007B09DD20A9F706C080E290E0B3010E942F
:1012B0007B09EA94EE20C1F743CEF3016681778182
:1012C000CB012B96E2E10C94210AFC0105906150C0
:1012D00070400110D8F7809590958E0F9F1F08954C
:1012E000FC016150704001900110D8F780959095F5
:1012F0008E0F9F1F08950F931F93CF93DF938C0141
:10130000EB018B8181FF1BC082FF0DC02E813F81CD
:101310008C819D812817390764F4E881F981019354
:10132000F983E88306C0E885F985802F0995892B24
:1013300031F48E819F8101969F838E8302C00FEFCF
:101340001FEFC801DF91CF911F910F910895FA010E
:10135000AA27283051F1203181F1E8946F936E7FF4
:101360006E5F7F4F8F4F9F4FAF4FB1E03ED0B4E0E5
:101370003CD0670F781F891F9A1FA11D680F791F26
:101380008A1F911DA11D6A0F711D811D911DA11D37
:1013900020D009F468943F912AE0269F1124301947
:1013A000305D3193DEF6CF010895462F4770405DE2
:1013B0004193B3E00FD0C9F7F6CF462F4F70405D91
:1013C0004A3318F0495D31FD4052419302D0A9F7EC
:1013D000EACFB4E0A6959795879577956795BA95E6
:1013E000C9F700976105710508959B01AC010A2EAC
:1013F00006945795479537952795BA95C9F7620F83
:10140000731F841F951FA01D08952F923F924F9226
:101410005F926F927F928F929F92AF92BF92CF9284
:10142000DF92EF92FF920F931F93CF93DF93CDB78D
:10143000DEB7CA1BDB0B0FB6F894DEBF0FBECDBF05
:1014400009942A88398848885F846E847D848C84D6
:101450009B84AA84B984C884DF80EE80FD800C81DF
:101460001B81AA81B981CE0FD11D0FB6F894DEBFC2
:0C1470000FBECDBFED010895F894FFCF32
:10147C000A0D2053656E642041636B6E6F776C654B
:10148C006467656D656E74203A000A0D00496E2024
:10149C00436865636B73756D202578005372632008
:1014AC00506F72743A000A0D4465737420506F7259
:1014BC00743A000A0D53657175656E6365204E753F
:1014CC006D6265723A000A0D467261676D656E74E5
:1014DC00204E756D6265723A000A0D4D657373612D
:1014EC006765204C656E6774682028696E636C753F
:1014FC0064696E67206E65776C696E65293A000ABF
:10150C000D446174613A20000A0D436865636B7386
:10151C00756D3A2000436865636B73756D20457279
:10152C00726F720A0D005573696E672052656C6993
:10153C0061626C65205472616E736D697373696F4F
:10154C006E202D457870656374696E6720616E201E
:10155C0041636B6E6F776C656467656D656E742047
:10156C000A0D00257820000A436865636B73756D5E
:10157C002025780A005472616E73706F7274205358
:10158C0065676D656E7420696E20486578200A0D5C
:10159C000057656C636F6D6520746F204132204974
:1015AC006C2D4D657373656E6765720A0D00576817
:1015BC006963682044657669636520446F20596FC0
:1015CC00752057616E7420746F2054616C6B2054BD
:1015DC006F3F200A0D005468697320616464726562
:1015EC00737320697320666F72204E6574776F7207
:1015FC006B204C617965720A0D0054797065204935
:10160C006E20596F7572204D657373616765200A82
:10161C000D000A0D20467261676D656E74696E6708
:10162C00204D657373616765200A0D000A0D446FC8
:10163C0020796F75207374696C6C2077616E7420DF
:10164C00746F2074616C6B20746F207468697320E4
:10165C006465766963653F205B592C4E5D0A0D000D
:10166C0072666D31325F72785F7374617475732852
:10167C0029203D205354415455535F434F4D504CFA
:10168C00455445200A0D006D6F6465206368616EDA
:10169C0067653A20000D0A0053656E64696E672019
:1016AC007061636B6574207468726F756768206411
:1016BC00656661756C7420706879736963616C2000
:1016CC006C617965720D0A0073656E640025750096
:0216DC001000FC
:00000001FF
