:100000000C944A000C9467000C9467000C94E10275
:100010000C9467000C9467000C9467000C946700C4
:100020000C9467000C9467000C9467000C946700B4
:100030000C9467000C9467000C9467000C946700A4
:100040000C9467000C9467000C9467000C94670094
:100050000C9467000C9467000C9467000C94670084
:100060000C9467000C9467000C9467000C94670074
:100070000C9467000C9467000C946700D680018292
:10008000F4A402C62D94ABC281CAF7C4709800C80C
:1000900000E0818211241FBECFEFD0E1DEBFCDBFD3
:1000A00012E0A0E0B1E0E8ECF0E102C005900D92B2
:1000B000AC32B107D9F713E0ACE2B2E001C01D9257
:1000C000A232B107E1F70E9427020C9462080C9457
:1000D0000000DC0140E050E0E0E0F0E070E00DC046
:1000E0008C91E0FD05C0382F20E04227532703C044
:1000F00090E04827592731961196E617F70784F3C1
:10010000CA010895CF92DF92EF92FF920F931F934F
:10011000DF93CF93CDB7DEB78C01CDB6DEB600D07E
:1001200000D0EDB7FEB7319680E091E0ADB7BEB735
:1001300012969C938E931197D80114968C9182837A
:1001400013820E949905EDB7FEB731968BE091E0DE
:10015000ADB7BEB712969C938E931197D8011596A2
:100160008C91828313820E949905F801848190E02A
:1001700024E0E22EF12CE80EF91EBC016B5F7F4FEC
:100180000F900F900F900F908DB79EB7861B970B17
:100190000FB6F8949EBF0FBE8DBF4DB75EB74F5FD1
:1001A0005F4F20E008C0FA01EA0FFB1FA00FB11F4C
:1001B0008C9180832F5FA22FB0E0A617B70798F32A
:1001C0006E2D6F5FCA010E946900D80116969C933C
:1001D0008E93159700D000D02AE131E0EDB7FEB73D
:1001E00032832183948383830E949905D8011496D6
:1001F0002C9181E391E0EDB7FEB792838183F80102
:10020000E20FF11D958180E0268130E0822B932B57
:10021000ADB7BEB714969C938E9313970E94990521
:100220000F900F900F900F900FB6F894DEBE0FBE98
:10023000CDBECF91DF911F910F91FF90EF90DF9096
:10024000CF9008952F923F924F925F927F928F921C
:100250009F92AF92BF92CF92DF92EF92FF920F9355
:100260001F93DF93CF9300D000D0CDB7DEB7082F18
:10027000B92E162F1A01722E2DB73EB73C832B8351
:10028000872D0E942105772011F098E001C090E0B1
:1002900080912C028295807F8729195F812E992475
:1002A00017502401089441085108ADB7BEB7A819EA
:1002B000B9090FB6F894BEBF0FBEADBFCDB6DEB65E
:1002C0000894C11CD11C11969C93F601818385E191
:1002D000828383831483E12EFF24EE0DFF1D15829C
:1002E00016822DB73EB72A5F3F4FC901602F7B2D85
:1002F000412F50E00E94900510E046E4A42E41E01A
:10030000B42E1AC000D000D02DB73EB72F5F3F4F9C
:10031000EDB7FEB7B282A182AC0DBD1D8C91D901A3
:1003200012968C93129713961C920E9499051F5F48
:100330000F900F900F900F90A12FB0E0A815B90566
:1003400008F38AE491E00E946604642D6F5FC601A1
:100350000E9469008C0100D000D0EDB7FEB7319645
:100360008EE591E0ADB7BEB712969C938E93119730
:10037000028313830E94990519830A83EC0CFD1CE8
:1003800089819A81F70196838583BB240F900F9012
:100390000F900F9036E4432E31E0532E25C000D04D
:1003A00000D0EDB7FEB73196ADB7BEB712965C92EE
:1003B0004E92119786010E0D1F1DD8018C918283DC
:1003C00013820E949905E20CF31CF8018081D70189
:1003D0008C930F900F900F900F9080810E942105B9
:1003E00080E20E945E04B394EB2CFF24E814F9042D
:1003F000B0F28CE691E00E946604772029F48091A7
:100400002C028F5F80932C0280912C02803111F49A
:1004100010922C02EB81FC810FB6F894FEBF0FBE48
:10042000EDBF0F900F900F900F90CF91DF911F9124
:100430000F91FF90EF90DF90CF90BF90AF909F9083
:100440008F907F905F904F903F902F9008950F93E3
:100450001F93DF93CF93CDB7DEB7C957D0400FB608
:10046000F894DEBF0FBECDBF0E943E0488EE93E03D
:100470002CE231E0F9013197F1F70197D9F70E94A9
:10048000EB0388EE93E02CE231E0F9013197F1F7CC
:100490000197D9F778948FE691E00E9466048E0167
:1004A0000F5F1F4F8CE891E00E9466040E944A048F
:1004B0008093A2028F3FD1F380939F020E945E043B
:1004C0008CE691E00E94660484EB91E00E94660451
:1004D0000E944A048093A2028F3FD1F3E091A302CD
:1004E000F0E0E35DFD4F80830E945E048091A302F3
:1004F0008F5F8093A3028137A9F48091A4028F5F5C
:100500008093A402803111F41092A4028DE292E053
:1005100061E7A8012091A4020E94220110922D02FD
:100520001092A3028091A2028A3011F08D3081F6E0
:100530008CE691E00E9466041092A4028DE292E0A3
:100540006091A302A80120E00E94220110922D02D6
:100550001092A3028CEC91E00E9466040E944A046F
:100560008093A2028F3FD1F30E945E048091A20289
:10057000893509F4A5CF893709F4A2CF8CE691E03B
:100580000E9466048FCF2C989EBD0DB407FEFDCF50
:100590008EBD0DB407FEFDCF2C9A08952C989EBDFC
:1005A0000DB407FEFDCF3EB58EBD0DB407FEFDCFE9
:1005B0002EB5932F80E02C9A30E0282B392BC901DF
:1005C000089578941F920F920FB60F921124CF9234
:1005D000DF92EF92FF920F931F932F933F934F93CE
:1005E0005F936F937F938F939F93AF93BF93EF939B
:1005F000FF93EA9800911B0384E0C82E12E0D12EED
:10060000B2E2EB2EFF24F394CCBA2C981EBC0DB4AE
:1006100007FEFDCF2C9A0EB407FE99C010910C0373
:100620001130B9F1113020F0123009F085C069C0E5
:10063000F0920F0380E090EB0E94CE02082F0D5F36
:1006400000930E03035020911003822F90E0FC01D1
:10065000A5E0EE0FFF1FAA95E1F7880F991FE80F9D
:10066000F91FE853FD4F8081882309F065C0F0929F
:100670000C03822F90E0FC0165E0EE0FFF1F6A95EE
:10068000E1F7880F991FE80FF91FE853FD4F018329
:10069000BBCF80E090EB0E94CE02282F90910F03F9
:1006A00080910E039817C0F40227913258F4E0911C
:1006B0001003EE9DF00111243196E90FF11DE8536E
:1006C000FD4F208380910F03823011F40F3FA1F57D
:1006D0008F5F80930F0398CF80911003282F30E015
:1006E000F90145E0EE0FFF1F4A95E1F7220F331F96
:1006F000E20FF31FE853FD4FD08281278093100350
:100700001BC020910F0380910E03281758F4E22F8D
:10071000F0E0EB55FD4F808190E02F5F20930F03B9
:10072000986B12C010920D0381E892E80E94C302F8
:100730008AEA98EB0E94C30210920C0381E89AECBB
:100740000E94C30283E89AEC0E94C3025DCF00932B
:100750001B03EA9AFF91EF91BF91AF919F918F9107
:100760007F916F915F914F913F912F911F910F91C9
:10077000FF90EF90DF90CF900F900FBE0F901F90E3
:100780001895982F80910D03882311F083E0089528
:100790006093A7029093A802692760956093A902CD
:1007A00081E080930D0380E8089520911103822F4A
:1007B00090E0FC0145E0EE0FFF1F4A95E1F7880F3E
:1007C000991FE80FF91FE853FD4F108281E0282799
:1007D000209311030895CF93DF932C9A249A259A9E
:1007E000279A2C9A249A269881E58CBD8DE28093D5
:1007F000A50284ED8093A6021092100310921103BB
:100800008DE294E9909313038093120387EF94ECA5
:10081000909315038093140380E798E9909317034E
:100820008093160386ED90E8909319038093180344
:10083000C0E0D0E0FE01EE0FFF1FE458FF4F8591AE
:1008400094910E94C3022196CC30D10599F78091F2
:10085000690080628093690080E090E00E94CE028F
:1008600084E08CBB81E89AEC0E94C30283E89AEC96
:100870000E94C302EA9ADF91CF9108951092C500B9
:100880008DE48093C40088E18093C10086E080936A
:10089000C20008958091C00087FD03C02FEF3FEF95
:1008A00004C08091C600282F30E0C90108958091CE
:1008B000C00087FFFCCF8091C6000895982F8091DB
:1008C000C00085FFFCCF9093C6000895FC0107C0CF
:1008D0008091C00085FFFCCF9093C6003196908137
:1008E0009923B1F708951F9310910C0380911A0377
:1008F000811751F180E092E00E946604113059F0B6
:10090000113018F0123099F40CC08091C00085FFAE
:10091000FCCF89E611C08091C00085FFFCCF82E743
:100920000BC08091C00085FFFCCF84E705C080919B
:10093000C00085FFFCCF8FE38093C6008EE092E07D
:100940000E94660410931A0380910C03882391F58A
:10095000EA9880E090E00E94CE02EA9A90FF02C0FE
:1009600088EC05C080912A02882321F08150809371
:100970002A0220C080910D038130E1F4EA9881E0E1
:1009800092E80E94C3028091A7028A5F80930E03BF
:1009900010920F0382E080930C038AEA98EB0E9486
:1009A000C3028AEA98EB0E94C30281E292E80E94A5
:1009B000C302EA9A1F910895873071F1883070F46C
:1009C000833011F1843028F48130D1F08230D0F4BA
:1009D00036C08530E9F08630E8F418C08B3021F15C
:1009E0008C3028F48930E1F08A30E0F417C08D3083
:1009F000F9F08D30D8F08E30E9F08F30F9F41CC06A
:100A000081E3089582E3089583E3089584E30895DC
:100A100085E3089586E3089587E3089588E30895BC
:100A200089E3089581E4089582E4089583E40895B4
:100A300084E4089585E4089586E40895089580E3A4
:100A400008951F93182F8091C00085FFFCCF812F40
:100A500082958F700E94DC048093C6008091C00054
:100A600085FFFCCF812F8F700E94DC048093C6002D
:100A70001F910895CF92DF92EF92FF920F931F93F1
:100A8000F82EC62EE42ED52E81E192E00E94660457
:100A900000D082E292E0ADB7BEB712969C938E93DF
:100AA00011970E94990500D0EDB7FEB7319607E285
:100AB00012E0ADB7BEB712961C930E931197F28257
:100AC00013820E949905EDB7FEB7128301838EE170
:100AD00090E0948383830E9499050F900F900F906C
:100AE0000F90FEE1FF1510F482E013C080910D031A
:100AF000882311F083E00DC02AEA32E0C9016E2D8F
:100B00007D2D4F2D50E00E9490058C2D6F2D0E9461
:100B1000C1031F910F91FF90EF90DF90CF90089548
:100B2000FB01DC0102C001900D9241505040D8F70A
:100B30000895A0E0B0E0EFE9F5E00C943B08FE0179
:100B400035966191719180911E0390911F03AF01C1
:100B50000E94AE052096E2E00C945708ABE0B0E0AE
:100B6000E4EBF5E00C942B083C012B015A01FC014D
:100B700017821682838181FD03C06FEF7FEFC6C1AC
:100B80009AE0892E1E010894211C311CF301238157
:100B9000F20123FD859123FF81912F01882309F420
:100BA000B2C1853239F423FD859123FF81912F0154
:100BB000853229F490E0B3010E94A107E7CF982F76
:100BC000FF24EE249924FFE1FF15D0F09B3269F059
:100BD0009C3228F4903259F0933291F40EC09D3239
:100BE00049F0903369F441E024C052E0F52A84E0F2
:100BF000F82A28C098E0F92A25C0E0E1FE2A22C0A0
:100C0000F7FC29C0892F80538A3070F4F6FE05C0A6
:100C1000989C902C1124980E15C0E89CE02C11246F
:100C2000E80EF0E2FF2A0EC09E3229F4F6FC6BC1FA
:100C300040E4F42A07C09C3619F450E8F52A02C0B3
:100C4000983649F4F20123FD959123FF91912F01EC
:100C5000992309F0B8CF892F8554833018F080523A
:100C6000833038F444E050E0A40EB51E5FE35983AE
:100C70000FC0933631F0933779F0933509F056C0B1
:100C800020C0F5018081898342E050E0A40EB51EAA
:100C9000610101E010E012C0F501C080D180F6FCD6
:100CA00003C06FEF7FEF02C0692D70E042E050E0BB
:100CB000A40EB51EC6010E9496078C015FE7F522BF
:100CC00014C0F501C080D180F6FC03C06FEF7FEF48
:100CD00002C0692D70E042E050E0A40EB51EC601CE
:100CE0000E948B078C0150E8F52AF3FE07C01AC05A
:100CF00080E290E0B3010E94A107EA948E2D90E07B
:100D000008171907A8F30EC0F601F7FC8591F7FE46
:100D100081916F0190E0B3010E94A107E110EA9474
:100D2000015010400115110579F7EAC0943611F011
:100D3000993669F5F7FE08C0F501208131814281BD
:100D4000538184E090E00AC0F501808191819C018B
:100D5000442737FD4095542F82E090E0A80EB91E3D
:100D60009FE6F92257FF09C050954095309521958F
:100D70003F4F4F4F5F4FE0E8FE2ACA01B901A10182
:100D80002AE030E00E94CD07D82ED21840C0953717
:100D900029F41F2D1F7E2AE030E01DC01F2D197F72
:100DA0009F3661F0903720F4983509F0ACC00FC041
:100DB000903739F0983709F0A6C004C028E030E039
:100DC0000AC0106114FD146020E130E004C014FD7D
:100DD000166020E132E017FF08C0F50160817181E3
:100DE0008281938144E050E008C0F50180819181C7
:100DF000BC0180E090E042E050E0A40EB51EA101ED
:100E00000E94CD07D82ED2188FE7F82EF122F6FED9
:100E10000BC05EEFF522D91438F4F4FE07C0F2FCE3
:100E200005C08FEEF82202C01D2D01C0192DF4FE61
:100E30000DC0FE01ED0DF11D8081803319F499EE96
:100E4000F92208C01F5FF2FE05C003C08F2D86780F
:100E500009F01F5F0F2DF3FC14C0F0FE0FC01E152C
:100E600010F09D2C0BC09D2C9E0C911A1E2D06C0BF
:100E700080E290E0B3010E94A1071F5F1E15C0F33E
:100E800004C01E1510F4E11A01C0EE2404FF0FC0C7
:100E900080E390E0B3010E94A10702FF1DC001FDA5
:100EA00003C088E790E00EC088E590E00BC0802F7B
:100EB000867891F001FF02C08BE201C080E2F7FC6E
:100EC0008DE290E0B3010E94A10706C080E390E0AC
:100ED000B3010E94A1079A94D914C0F3DA94F101E6
:100EE000ED0DF11D808190E0B3010E94A107DD208E
:100EF000A9F706C080E290E0B3010E94A107EA943E
:100F0000EE20C1F743CEF30166817781CB012B96AA
:100F1000E2E10C944708FC0105906150704001101B
:100F2000D8F7809590958E0F9F1F0895FC01615012
:100F3000704001900110D8F7809590958E0F9F1FFB
:100F400008950F931F93CF93DF938C01EB018B8157
:100F500081FF1BC082FF0DC02E813F818C819D814E
:100F60002817390764F4E881F9810193F983E8834C
:100F700006C0E885F985802F0995892B31F48E818B
:100F80009F8101969F838E8302C00FEF1FEFC801E0
:100F9000DF91CF911F910F910895FA01AA27283070
:100FA00051F1203181F1E8946F936E7F6E5F7F4F36
:100FB0008F4F9F4FAF4FB1E03ED0B4E03CD0670FB2
:100FC000781F891F9A1FA11D680F791F8A1F911D05
:100FD000A11D6A0F711D811D911DA11D20D009F455
:100FE00068943F912AE0269F11243019305D319397
:100FF000DEF6CF010895462F4770405D4193B3E080
:101000000FD0C9F7F6CF462F4F70405D4A3318F026
:10101000495D31FD4052419302D0A9F7EACFB4E0D7
:10102000A6959795879577956795BA95C9F700978F
:101030006105710508959B01AC010A2E0694579530
:10104000479537952795BA95C9F7620F731F841F87
:10105000951FA01D08952F923F924F925F926F921D
:101060007F928F929F92AF92BF92CF92DF92EF9238
:10107000FF920F931F93CF93DF93CDB7DEB7CA1BB9
:10108000DB0B0FB6F894DEBF0FBECDBF09942A88E4
:10109000398848885F846E847D848C849B84AA848C
:1010A000B984C884DF80EE80FD800C811B81AA8119
:1010B000B981CE0FD11D0FB6F894DEBF0FBECDBFE4
:0810C000ED010895F894FFCF43
:1010C8004C656E67746820257820004669727374D1
:1010D8002044617461202578200043616C63756C3D
:1010E8006174656420436865636B73756D2025784A
:1010F80000526563656976656420257820436865D4
:10110800636B73756D00257820000A0D4166746560
:101118007220436865636B73756D200A0D000A437E
:101128006865636B73756D2025780A000A0D005792
:10113800656C636F6D6520746F20413220496C2D9A
:101148004D657373656E6765720A0D00576869634C
:10115800682044657669636520446F20596F75205F
:1011680057616E7420746F2054616C6B20546F3F0C
:10117800200A0D005479706520496E20596F7572E8
:10118800204D657373616765200A0D000A0D446F71
:1011980020796F75207374696C6C2077616E742088
:1011A800746F2074616C6B20746F2074686973208D
:1011B8006465766963653F205B592C4E5D0A0D00B6
:1011C8006D6F6465206368616E67653A20000D0A7B
:1011D8000073656E64696E67207061636B65740D7A
:0C11E8000A0073656E640025750010009D
:00000001FF
