:100000000C944A000C9467000C9467000C94BE0298
:100010000C9467000C9467000C9467000C946700C4
:100020000C9467000C9467000C9467000C946700B4
:100030000C9467000C9467000C9467000C946700A4
:100040000C9467000C9467000C9467000C94670094
:100050000C9467000C9467000C9467000C94670084
:100060000C9467000C9467000C9467000C94670074
:100070000C9467000C9467000C946700D680018292
:10008000F4A402C62D94ABC281CAF7C4709800C80C
:1000900000E0818211241FBECFEFD0E1DEBFCDBFD3
:1000A00012E0A0E0B1E0E2E8F0E102C005900D92BC
:1000B000A434B107D9F713E0A4E4B2E001C01D9263
:1000C000AA33B107E1F70E9417020C943F080C9481
:1000D0000000DC0140E050E0E0E0F0E070E00DC046
:1000E0008C91E0FD05C0382F20E04227532703C044
:1000F00090E04827592731961196E617F70784F3C1
:10010000CA010895CF92DF92EF92FF920F931F934F
:10011000DF93CF93CDB7DEB78C01CDB6DEB600D07E
:1001200000D0EDB7FEB7319680E091E0ADB7BEB735
:1001300012969C938E931197D80114968C9182837A
:1001400013820E947605EDB7FEB731968BE091E001
:10015000ADB7BEB712969C938E931197D8011596A2
:100160008C91828313820E947605F801848190E04D
:1001700024E0E22EF12CE80EF91EBC016B5F7F4FEC
:100180000F900F900F900F908DB79EB7861B970B17
:100190000FB6F8949EBF0FBE8DBF4DB75EB74F5FD1
:1001A0005F4F20E008C0FA01EA0FFB1FA00FB11F4C
:1001B0008C9180832F5FA22FB0E0A617B70798F32A
:1001C0006E2D6F5FCA010E946900D80116969C933C
:1001D0008E93159700D000D02AE131E0EDB7FEB73D
:1001E00032832183948383830E947605D8011496F9
:1001F0002C9181E391E0EDB7FEB792838183F80102
:10020000E20FF11D958180E0268130E0822B932B57
:10021000ADB7BEB714969C938E9313970E94760544
:100220000F900F900F900F900FB6F894DEBE0FBE98
:10023000CDBECF91DF911F910F91FF90EF90DF9096
:10024000CF9008952F923F924F925F926F927F923C
:100250008F929F92AF92BF92CF92DF92EF92FF92D6
:100260000F931F93DF93CF9300D000D0CDB7DEB7AD
:10027000082FF92E162F1A018DB79EB79C838B83FA
:1002800086E491E00E94430485E10E943B04195FEB
:10029000812E992417502401089441085108ADB7C4
:1002A000BEB7A819B9090FB6F894BEBF0FBEADBF4F
:1002B000CDB6DEB60894C11CD11C11961C92F60175
:1002C000118285E1828383831483A12EBB24EA0DEE
:1002D000FB1D158216822DB73EB72A5F3F4FC9011D
:1002E000602F7F2D412F50E00E946D05FF244FE5C8
:1002F000642E41E0742E20C000D000D0EDB7FEB7D0
:100300003196ADB7BEB712967C926E921197860168
:10031000080F191FD8018C91828313820E947605E1
:100320000F900F900F900F90F80180810E94FE04B3
:1003300080E20E943B04F3948F2D90E0881599058C
:10034000D8F283E691E00E944304642D6F5FC601FA
:100350000E9469008C0100D000D0EDB7FEB7319645
:1003600087E791E0ADB7BEB712969C938E93119735
:10037000028313830E94760519830A83AC0CBD1C8B
:1003800089819A81F50196838583BB240F900F9014
:100390000F900F903FE5632E31E0732E25C000D003
:1003A00000D0EDB7FEB73196ADB7BEB712967C92CE
:1003B0006E92119786010E0D1F1DD8018C918283BC
:1003C00013820E947605E20CF31CF8018081D701AC
:1003D0008C930F900F900F900F9080810E94FE04DD
:1003E00080E20E943B04B394EB2CFF24E814F90450
:1003F000B0F2EB81FC810FB6F894FEBF0FBEEDBFEB
:100400000F900F900F900F90CF91DF911F910F9150
:10041000FF90EF90DF90CF90BF90AF909F908F9024
:100420007F906F905F904F903F902F9008950F9323
:100430001F93DF93CF93CDB7DEB7C957D0400FB628
:10044000F894DEBF0FBECDBFFE01319689E7DF0114
:100450001D928A95E9F70E941B0488EE93E02CE236
:1004600031E0F9013197F1F70197D9F70E94C803FC
:1004700088EE93E02CE231E0F9013197F1F7019732
:10048000D9F7789485E891E00E9443048E010F5FCC
:100490001F4F82EA91E00E9443040E942704809348
:1004A000BB028F3FD1F38093B8020E943B048AECD9
:1004B00091E00E9443048DEC91E00E9443040E946D
:1004C00027048093BB028F3FD1F3E091BC02F0E0A0
:1004D000EA5BFD4F80830E943B048091BC028F5FEA
:1004E0008093BC028091BB028A3011F08D3039F7C5
:1004F0008AEC91E00E94430486E492E06091BC02A1
:10050000A8010E942201109246021092BC0285EEC0
:1005100091E00E9443040E9427048093BB028F3F16
:10052000D1F30E943B048091BB02893509F4BFCF0F
:10053000893709F4BCCF8AEC91E00E944304A9CF2B
:100540002C989EBD0DB407FEFDCF8EBD0DB407FEE9
:10055000FDCF2C9A08952C989EBD0DB407FEFDCFBB
:100560003EB58EBD0DB407FEFDCF2EB5932F80E0B6
:100570002C9A30E0282B392BC901089578941F92CA
:100580000F920FB60F921124CF92DF92EF92FF924B
:100590000F931F932F933F934F935F936F937F938B
:1005A0008F939F93AF93BF93EF93FF93EA9800913C
:1005B000330384E0C82E12E0D12EB2E2EB2EFF24EA
:1005C000F394CCBA2C981EBC0DB407FEFDCF2C9A28
:1005D0000EB407FE99C0109124031130B9F1113007
:1005E00020F0123009F085C069C0F092270380E046
:1005F00090EB0E94AB02082F0D5F0093260303507F
:1006000020912803822F90E0FC01A5E0EE0FFF1F50
:10061000AA95E1F7880F991FE80FF91FE052FD4FE7
:100620008081882309F065C0F0922403822F90E036
:10063000FC0165E0EE0FFF1F6A95E1F7880F991F37
:10064000E80FF91FE052FD4F0183BBCF80E090EB34
:100650000E94AB02282F90912703809126039817C0
:10066000C0F40227913258F4E0912803EE9DF00186
:1006700011243196E90FF11DE052FD4F2083809146
:100680002703823011F40F3FA1F58F5F809327037A
:1006900098CF80912803282F30E0F90145E0EE0F34
:1006A000FF1F4A95E1F7220F331FE20FF31FE052BD
:1006B000FD4FD0828127809328031BC02091270300
:1006C00080912603281758F4E22FF0E0E354FD4F01
:1006D000808190E02F5F20932703986B12C01092C7
:1006E000250381E892E80E94A0028AEA98EB0E9422
:1006F000A0021092240381E89AEC0E94A00283E8F1
:100700009AEC0E94A0025DCF00933303EA9AFF9116
:10071000EF91BF91AF919F918F917F916F915F9179
:100720004F913F912F911F910F91FF90EF90DF908C
:10073000CF900F900FBE0F901F901895982F80911B
:100740002503882311F083E008956093BF029093FE
:10075000C002692760956093C10281E08093250300
:1007600080E8089520912903822F90E0FC0145E064
:10077000EE0FFF1F4A95E1F7880F991FE80FF91F49
:10078000E052FD4F108281E028272093290308952D
:10079000CF93DF932C9A249A259A279A2C9A249AFD
:1007A000269881E58CBD8DE28093BD0284ED809317
:1007B000BE0210922803109229038DE294E99093CF
:1007C0002B0380932A0387EF94EC90932D0380935F
:1007D0002C0380E798E990932F0380932E0386EDF6
:1007E00090E89093310380933003C0E0D0E0FE01A5
:1007F000EE0FFF1FE458FF4F859194910E94A002D5
:100800002196CC30D10599F7809169008062809360
:10081000690080E090E00E94AB0284E08CBB81E83C
:100820009AEC0E94A00283E89AEC0E94A002EA9A45
:10083000DF91CF9108951092C5008DE48093C4009C
:1008400088E18093C10086E08093C2000895809182
:10085000C00087FD03C02FEF3FEF04C08091C600AA
:10086000282F30E0C90108958091C00087FFFCCF98
:100870008091C6000895982F8091C00085FFFCCF1D
:100880009093C6000895FC0107C08091C00085FFC9
:10089000FCCF9093C600319690819923B1F70895CB
:1008A0001F931091240380913203811751F189E144
:1008B00092E00E944304113059F0113018F01230C8
:1008C00099F40CC08091C00085FFFCCF89E611C06F
:1008D0008091C00085FFFCCF82E70BC08091C000F3
:1008E00085FFFCCF84E705C08091C00085FFFCCF69
:1008F0008FE38093C60087E292E00E944304109346
:10090000320380912403882391F5EA9880E090E0F7
:100910000E94AB02EA9A90FF02C088EC05C0809169
:100920004302882321F081508093430220C08091AC
:1009300025038130E1F4EA9881E092E80E94A00268
:100940008091BF028A5F809326031092270382E082
:10095000809324038AEA98EB0E94A0028AEA98EB2B
:100960000E94A00281E292E80E94A002EA9A1F91EE
:100970000895873071F1883070F4833011F184303C
:1009800028F48130D1F08230D0F436C08530E9F0DF
:100990008630E8F418C08B3021F18C3028F489308F
:1009A000E1F08A30E0F417C08D30F9F08D30D8F0E6
:1009B0008E30E9F08F30F9F41CC081E3089582E3B2
:1009C000089583E3089584E3089585E3089586E315
:1009D000089587E3089588E3089589E3089581E4FD
:1009E000089582E4089583E4089584E4089585E4F5
:1009F000089586E40895089580E308951F93182FBD
:100A00008091C00085FFFCCF812F82958F700E945E
:100A1000B9048093C6008091C00085FFFCCF812F70
:100A20008F700E94B9048093C6001F910895CF92E1
:100A3000DF92EF92FF920F931F93F82EC62EE42EB3
:100A4000D52E8AE292E00E94430400D08BE392E02C
:100A5000ADB7BEB712969C938E9311970E94760500
:100A600000D0EDB7FEB7319600E412E0ADB7BEB7E7
:100A700012961C930E931197F28213820E947605B0
:100A8000EDB7FEB7128301838EE190E094838383F8
:100A90000E9476050F900F900F900F90FEE1FF15CA
:100AA00010F482E013C080912503882311F083E0C5
:100AB0000DC022EC32E0C9016E2D7D2D4F2D50E08E
:100AC0000E946D058C2D6F2D0E949E031F910F912A
:100AD000FF90EF90DF90CF900895FB01DC0102C002
:100AE00001900D9241505040D8F70895A0E0B0E039
:100AF000ECE7F5E00C941808FE01359661917191D0
:100B00008091360390913703AF010E948B052096A8
:100B1000E2E00C943408ABE0B0E0E1E9F5E00C94DD
:100B200008083C012B015A01FC01178216828381BF
:100B300081FD03C06FEF7FEFC6C19AE0892E1E01D1
:100B40000894211C311CF3012381F20123FD8591BE
:100B500023FF81912F01882309F4B2C1853239F432
:100B600023FD859123FF81912F01853229F490E0A7
:100B7000B3010E947E07E7CF982FFF24EE2499242B
:100B8000FFE1FF15D0F09B3269F09C3228F49032DF
:100B900059F0933291F40EC09D3249F0903369F4CC
:100BA00041E024C052E0F52A84E0F82A28C098E009
:100BB000F92A25C0E0E1FE2A22C0F7FC29C0892FCE
:100BC00080538A3070F4F6FE05C0989C902C112456
:100BD000980E15C0E89CE02C1124E80EF0E2FF2AE4
:100BE0000EC09E3229F4F6FC6BC140E4F42A07C023
:100BF0009C3619F450E8F52A02C0983649F4F201FF
:100C000023FD959123FF91912F01992309F0B8CFEE
:100C1000892F8554833018F08052833038F444E0B3
:100C200050E0A40EB51E5FE359830FC0933631F038
:100C3000933779F0933509F056C020C0F5018081D3
:100C4000898342E050E0A40EB51E610101E010E08E
:100C500012C0F501C080D180F6FC03C06FEF7FEFBA
:100C600002C0692D70E042E050E0A40EB51EC6013E
:100C70000E9473078C015FE7F52214C0F501C08064
:100C8000D180F6FC03C06FEF7FEF02C0692D70E0EA
:100C900042E050E0A40EB51EC6010E9468078C0118
:100CA00050E8F52AF3FE07C01AC080E290E0B301D5
:100CB0000E947E07EA948E2D90E008171907A8F38A
:100CC0000EC0F601F7FC8591F7FE81916F0190E06F
:100CD000B3010E947E07E110EA9401501040011513
:100CE000110579F7EAC0943611F0993669F5F7FEE7
:100CF00008C0F501208131814281538184E090E078
:100D00000AC0F501808191819C01442737FD4095FF
:100D1000542F82E090E0A80EB91E9FE6F92257FFFB
:100D200009C050954095309521953F4F4F4F5F4FEB
:100D3000E0E8FE2ACA01B901A1012AE030E00E94E0
:100D4000AA07D82ED21840C0953729F41F2D1F7E30
:100D50002AE030E01DC01F2D197F9F3661F09037CB
:100D600020F4983509F0ACC00FC0903739F09837AF
:100D700009F0A6C004C028E030E00AC0106114FDEC
:100D8000146020E130E004C014FD166020E132E080
:100D900017FF08C0F501608171818281938144E071
:100DA00050E008C0F50180819181BC0180E090E0B5
:100DB00042E050E0A40EB51EA1010E94AA07D82E61
:100DC000D2188FE7F82EF122F6FE0BC05EEFF52267
:100DD000D91438F4F4FE07C0F2FC05C08FEEF822F7
:100DE00002C01D2D01C0192DF4FE0DC0FE01ED0D38
:100DF000F11D8081803319F499EEF92208C01F5F3C
:100E0000F2FE05C003C08F2D867809F01F5F0F2DFD
:100E1000F3FC14C0F0FE0FC01E1510F09D2C0BC08B
:100E20009D2C9E0C911A1E2D06C080E290E0B3010D
:100E30000E947E071F5F1E15C0F304C01E1510F42C
:100E4000E11A01C0EE2404FF0FC080E390E0B3017B
:100E50000E947E0702FF1DC001FD03C088E790E0ED
:100E60000EC088E590E00BC0802F867891F001FFDE
:100E700002C08BE201C080E2F7FC8DE290E0B3019A
:100E80000E947E0706C080E390E0B3010E947E07C7
:100E90009A94D914C0F3DA94F101ED0DF11D80811B
:100EA00090E0B3010E947E07DD20A9F706C080E232
:100EB00090E0B3010E947E07EA94EE20C1F743CE92
:100EC000F30166817781CB012B96E2E10C94240833
:100ED000FC010590615070400110D8F78095909505
:100EE0008E0F9F1F0895FC0161507040019001100A
:100EF000D8F7809590958E0F9F1F08950F931F939D
:100F0000CF93DF938C01EB018B8181FF1BC082FFAC
:100F10000DC02E813F818C819D812817390764F493
:100F2000E881F9810193F983E88306C0E885F985B2
:100F3000802F0995892B31F48E819F8101969F83A3
:100F40008E8302C00FEF1FEFC801DF91CF911F9179
:100F50000F910895FA01AA27283051F1203181F12B
:100F6000E8946F936E7F6E5F7F4F8F4F9F4FAF4FB1
:100F7000B1E03ED0B4E03CD0670F781F891F9A1FC4
:100F8000A11D680F791F8A1F911DA11D6A0F711D78
:100F9000811D911DA11D20D009F468943F912AE084
:100FA000269F11243019305D3193DEF6CF0108956C
:100FB000462F4770405D4193B3E00FD0C9F7F6CF9D
:100FC000462F4F70405D4A3318F0495D31FD405265
:100FD000419302D0A9F7EACFB4E0A69597958795FB
:100FE00077956795BA95C9F70097610571050895DA
:100FF0009B01AC010A2E0694579547953795279586
:10100000BA95C9F7620F731F841F951FA01D08951D
:101010002F923F924F925F926F927F928F929F9208
:10102000AF92BF92CF92DF92EF92FF920F931F93F6
:10103000CF93DF93CDB7DEB7CA1BDB0B0FB6F894A7
:10104000DEBF0FBECDBF09942A88398848885F84E7
:101050006E847D848C849B84AA84B984C884DF8058
:10106000EE80FD800C811B81AA81B981CE0FD11D3C
:101070000FB6F894DEBF0FBECDBFED010895F89412
:02108000FFCFA0
:101082004C656E6774682025782000466972737417
:101092002044617461202578200043616C63756C83
:1010A2006174656420436865636B73756D20257890
:1010B200005265636569766564202578204368651A
:1010C200636B73756D0053656E64696E6720746837
:1010D200726F75676820506F7274203A0A0D00258E
:1010E2007820000A0D416674657220436865636B5F
:1010F20073756D200A0D000A436865636B73756D25
:101102002025780A0057656C636F6D6520746F2027
:10111200413220496C2D4D657373656E6765720AA5
:101122000D005768696368204465766963652044E9
:101132006F20596F752057616E7420746F2054614F
:101142006C6B20546F3F200A0D000A0D0054797019
:101152006520496E20596F7572204D657373616702
:1011620065200A0D000A0D446F20796F7520737493
:10117200696C6C2077616E7420746F2074616C6B83
:1011820020746F2074686973206465766963653FB3
:10119200205B592C4E5D0A0D006D6F6465206368FB
:1011A200616E67653A20000D0A0073656E64696EB0
:1011B20067207061636B65740D0A0073656E64006D
:0411C200257500107F
:00000001FF
